{
  "contractName": "ERC721",
  "abi": [
    {
      "inputs": [
        {
          "internalType": "address",
          "name": "_openseaProxyRegistry",
          "type": "address"
        },
        {
          "internalType": "string",
          "name": "_baseURI",
          "type": "string"
        }
      ],
      "stateMutability": "nonpayable",
      "type": "constructor"
    },
    {
      "anonymous": false,
      "inputs": [
        {
          "indexed": true,
          "internalType": "address",
          "name": "_owner",
          "type": "address"
        },
        {
          "indexed": true,
          "internalType": "address",
          "name": "_approved",
          "type": "address"
        },
        {
          "indexed": true,
          "internalType": "uint256",
          "name": "_tokenId",
          "type": "uint256"
        }
      ],
      "name": "Approval",
      "type": "event"
    },
    {
      "anonymous": false,
      "inputs": [
        {
          "indexed": true,
          "internalType": "address",
          "name": "_owner",
          "type": "address"
        },
        {
          "indexed": true,
          "internalType": "address",
          "name": "_operator",
          "type": "address"
        },
        {
          "indexed": false,
          "internalType": "bool",
          "name": "_approved",
          "type": "bool"
        }
      ],
      "name": "ApprovalForAll",
      "type": "event"
    },
    {
      "anonymous": false,
      "inputs": [
        {
          "indexed": true,
          "internalType": "address",
          "name": "previousOwner",
          "type": "address"
        },
        {
          "indexed": true,
          "internalType": "address",
          "name": "newOwner",
          "type": "address"
        }
      ],
      "name": "OwnershipTransferred",
      "type": "event"
    },
    {
      "anonymous": false,
      "inputs": [
        {
          "indexed": true,
          "internalType": "address",
          "name": "_from",
          "type": "address"
        },
        {
          "indexed": true,
          "internalType": "address",
          "name": "_to",
          "type": "address"
        },
        {
          "indexed": true,
          "internalType": "uint256",
          "name": "_tokenId",
          "type": "uint256"
        }
      ],
      "name": "Transfer",
      "type": "event"
    },
    {
      "inputs": [],
      "name": "baseURI",
      "outputs": [
        {
          "internalType": "string",
          "name": "",
          "type": "string"
        }
      ],
      "stateMutability": "view",
      "type": "function"
    },
    {
      "inputs": [],
      "name": "owner",
      "outputs": [
        {
          "internalType": "address",
          "name": "",
          "type": "address"
        }
      ],
      "stateMutability": "view",
      "type": "function"
    },
    {
      "inputs": [],
      "name": "proxyRegistryAddress",
      "outputs": [
        {
          "internalType": "address",
          "name": "",
          "type": "address"
        }
      ],
      "stateMutability": "view",
      "type": "function"
    },
    {
      "inputs": [],
      "name": "renounceOwnership",
      "outputs": [],
      "stateMutability": "nonpayable",
      "type": "function"
    },
    {
      "inputs": [],
      "name": "totalSupply",
      "outputs": [
        {
          "internalType": "uint16",
          "name": "",
          "type": "uint16"
        }
      ],
      "stateMutability": "view",
      "type": "function"
    },
    {
      "inputs": [
        {
          "internalType": "address",
          "name": "newOwner",
          "type": "address"
        }
      ],
      "name": "transferOwnership",
      "outputs": [],
      "stateMutability": "nonpayable",
      "type": "function"
    },
    {
      "inputs": [
        {
          "internalType": "bytes4",
          "name": "interfaceId",
          "type": "bytes4"
        }
      ],
      "name": "supportsInterface",
      "outputs": [
        {
          "internalType": "bool",
          "name": "",
          "type": "bool"
        }
      ],
      "stateMutability": "view",
      "type": "function"
    },
    {
      "inputs": [
        {
          "internalType": "address",
          "name": "owner",
          "type": "address"
        }
      ],
      "name": "balanceOf",
      "outputs": [
        {
          "internalType": "uint256",
          "name": "",
          "type": "uint256"
        }
      ],
      "stateMutability": "view",
      "type": "function"
    },
    {
      "inputs": [
        {
          "internalType": "uint256",
          "name": "tokenId",
          "type": "uint256"
        }
      ],
      "name": "ownerOf",
      "outputs": [
        {
          "internalType": "address",
          "name": "",
          "type": "address"
        }
      ],
      "stateMutability": "view",
      "type": "function"
    },
    {
      "inputs": [],
      "name": "name",
      "outputs": [
        {
          "internalType": "string",
          "name": "",
          "type": "string"
        }
      ],
      "stateMutability": "pure",
      "type": "function"
    },
    {
      "inputs": [],
      "name": "symbol",
      "outputs": [
        {
          "internalType": "string",
          "name": "",
          "type": "string"
        }
      ],
      "stateMutability": "pure",
      "type": "function"
    },
    {
      "inputs": [
        {
          "internalType": "uint256",
          "name": "tokenId",
          "type": "uint256"
        }
      ],
      "name": "tokenURI",
      "outputs": [
        {
          "internalType": "string",
          "name": "",
          "type": "string"
        }
      ],
      "stateMutability": "view",
      "type": "function"
    },
    {
      "inputs": [
        {
          "internalType": "string",
          "name": "uri",
          "type": "string"
        }
      ],
      "name": "setBaseURI",
      "outputs": [],
      "stateMutability": "nonpayable",
      "type": "function"
    },
    {
      "inputs": [
        {
          "internalType": "address",
          "name": "to",
          "type": "address"
        },
        {
          "internalType": "uint256",
          "name": "tokenId",
          "type": "uint256"
        }
      ],
      "name": "approve",
      "outputs": [],
      "stateMutability": "nonpayable",
      "type": "function"
    },
    {
      "inputs": [
        {
          "internalType": "uint256",
          "name": "tokenId",
          "type": "uint256"
        }
      ],
      "name": "getApproved",
      "outputs": [
        {
          "internalType": "address",
          "name": "",
          "type": "address"
        }
      ],
      "stateMutability": "view",
      "type": "function"
    },
    {
      "inputs": [
        {
          "internalType": "address",
          "name": "operator",
          "type": "address"
        },
        {
          "internalType": "bool",
          "name": "approved",
          "type": "bool"
        }
      ],
      "name": "setApprovalForAll",
      "outputs": [],
      "stateMutability": "nonpayable",
      "type": "function"
    },
    {
      "inputs": [
        {
          "internalType": "address",
          "name": "owner",
          "type": "address"
        },
        {
          "internalType": "address",
          "name": "operator",
          "type": "address"
        }
      ],
      "name": "isApprovedForAll",
      "outputs": [
        {
          "internalType": "bool",
          "name": "",
          "type": "bool"
        }
      ],
      "stateMutability": "view",
      "type": "function"
    },
    {
      "inputs": [
        {
          "internalType": "address",
          "name": "addr",
          "type": "address"
        }
      ],
      "name": "setOpenseaProxyRegistry",
      "outputs": [],
      "stateMutability": "nonpayable",
      "type": "function"
    },
    {
      "inputs": [
        {
          "internalType": "address",
          "name": "from",
          "type": "address"
        },
        {
          "internalType": "address",
          "name": "to",
          "type": "address"
        },
        {
          "internalType": "uint256",
          "name": "tokenId",
          "type": "uint256"
        }
      ],
      "name": "transferFrom",
      "outputs": [],
      "stateMutability": "nonpayable",
      "type": "function"
    },
    {
      "inputs": [
        {
          "internalType": "address",
          "name": "from",
          "type": "address"
        },
        {
          "internalType": "address",
          "name": "to",
          "type": "address"
        },
        {
          "internalType": "uint256",
          "name": "tokenId",
          "type": "uint256"
        }
      ],
      "name": "safeTransferFrom",
      "outputs": [],
      "stateMutability": "nonpayable",
      "type": "function"
    },
    {
      "inputs": [
        {
          "internalType": "address",
          "name": "from",
          "type": "address"
        },
        {
          "internalType": "address",
          "name": "to",
          "type": "address"
        },
        {
          "internalType": "uint256",
          "name": "tokenId",
          "type": "uint256"
        },
        {
          "internalType": "bytes",
          "name": "_data",
          "type": "bytes"
        }
      ],
      "name": "safeTransferFrom",
      "outputs": [],
      "stateMutability": "nonpayable",
      "type": "function"
    }
  ],
  "bytecode": "0x60806040523480156200001157600080fd5b50604051620032f6380380620032f68339818101604052810190620000379190620002b3565b6200004833620000aa60201b60201c565b81600160006101000a81548173ffffffffffffffffffffffffffffffffffffffff021916908373ffffffffffffffffffffffffffffffffffffffff1602179055508060029080519060200190620000a19291906200016e565b505050620004eb565b60008060009054906101000a900473ffffffffffffffffffffffffffffffffffffffff169050816000806101000a81548173ffffffffffffffffffffffffffffffffffffffff021916908373ffffffffffffffffffffffffffffffffffffffff1602179055508173ffffffffffffffffffffffffffffffffffffffff168173ffffffffffffffffffffffffffffffffffffffff167f8be0079c531659141344cd1fd0a4f28419497f9722a3daafe3b4186f6b6457e060405160405180910390a35050565b8280546200017c90620003e2565b90600052602060002090601f016020900481019282620001a05760008555620001ec565b82601f10620001bb57805160ff1916838001178555620001ec565b82800160010185558215620001ec579182015b82811115620001eb578251825591602001919060010190620001ce565b5b509050620001fb9190620001ff565b5090565b5b808211156200021a57600081600090555060010162000200565b5090565b6000620002356200022f8462000342565b62000319565b905082815260208101848484011115620002545762000253620004b1565b5b62000261848285620003ac565b509392505050565b6000815190506200027a81620004d1565b92915050565b600082601f830112620002985762000297620004ac565b5b8151620002aa8482602086016200021e565b91505092915050565b60008060408385031215620002cd57620002cc620004bb565b5b6000620002dd8582860162000269565b925050602083015167ffffffffffffffff811115620003015762000300620004b6565b5b6200030f8582860162000280565b9150509250929050565b60006200032562000338565b905062000333828262000418565b919050565b6000604051905090565b600067ffffffffffffffff82111562000360576200035f6200047d565b5b6200036b82620004c0565b9050602081019050919050565b600062000385826200038c565b9050919050565b600073ffffffffffffffffffffffffffffffffffffffff82169050919050565b60005b83811015620003cc578082015181840152602081019050620003af565b83811115620003dc576000848401525b50505050565b60006002820490506001821680620003fb57607f821691505b602082108114156200041257620004116200044e565b5b50919050565b6200042382620004c0565b810181811067ffffffffffffffff821117156200044557620004446200047d565b5b80604052505050565b7f4e487b7100000000000000000000000000000000000000000000000000000000600052602260045260246000fd5b7f4e487b7100000000000000000000000000000000000000000000000000000000600052604160045260246000fd5b600080fd5b600080fd5b600080fd5b600080fd5b6000601f19601f8301169050919050565b620004dc8162000378565b8114620004e857600080fd5b50565b612dfb80620004fb6000396000f3fe608060405234801561001057600080fd5b50600436106101375760003560e01c806370a08231116100b8578063b88d4fde1161007c578063b88d4fde14610328578063bd2f524414610344578063c87b56dd14610360578063cd7c032614610390578063e985e9c5146103ae578063f2fde38b146103de57610137565b806370a0823114610296578063715018a6146102c65780638da5cb5b146102d057806395d89b41146102ee578063a22cb4651461030c57610137565b806323b872dd116100ff57806323b872dd146101f457806342842e0e1461021057806355f804b31461022c5780636352211e146102485780636c0360eb1461027857610137565b806301ffc9a71461013c57806306fdde031461016c578063081812fc1461018a578063095ea7b3146101ba57806318160ddd146101d6575b600080fd5b61015660048036038101906101519190611d6b565b6103fa565b6040516101639190612269565b60405180910390f35b6101746104dc565b6040516101819190612284565b60405180910390f35b6101a4600480360381019061019f9190611e3b565b610519565b6040516101b19190612202565b60405180910390f35b6101d460048036038101906101cf9190611d2b565b61059e565b005b6101de6106d3565b6040516101eb9190612466565b60405180910390f35b61020e60048036038101906102099190611c15565b6106e7565b005b61022a60048036038101906102259190611c15565b610740565b005b61024660048036038101906102419190611df2565b610760565b005b610262600480360381019061025d9190611e3b565b6107ef565b60405161026f9190612202565b60405180910390f35b6102806108a1565b60405161028d9190612284565b60405180910390f35b6102b060048036038101906102ab9190611ba8565b61092f565b6040516102bd9190612481565b60405180910390f35b6102ce6109e7565b005b6102d8610a68565b6040516102e59190612202565b60405180910390f35b6102f6610a91565b6040516103039190612284565b60405180910390f35b61032660048036038101906103219190611ceb565b610ace565b005b610342600480360381019061033d9190611c68565b610add565b005b61035e60048036038101906103599190611ba8565b610b38565b005b61037a60048036038101906103759190611e3b565b610bf1565b6040516103879190612284565b60405180910390f35b610398610c6d565b6040516103a59190612202565b60405180910390f35b6103c860048036038101906103c39190611bd5565b610c93565b6040516103d59190612269565b60405180910390f35b6103f860048036038101906103f39190611ba8565b610e15565b005b60007f80ac58cd000000000000000000000000000000000000000000000000000000007bffffffffffffffffffffffffffffffffffffffffffffffffffffffff1916827bffffffffffffffffffffffffffffffffffffffffffffffffffffffff191614806104c557507f5b5e139f000000000000000000000000000000000000000000000000000000007bffffffffffffffffffffffffffffffffffffffffffffffffffffffff1916827bffffffffffffffffffffffffffffffffffffffffffffffffffffffff1916145b806104d557506104d482610f06565b5b9050919050565b60606040518060400160405280600e81526020017f4c6f6669204f726967696e616c73000000000000000000000000000000000000815250905090565b600061052482610f70565b610563576040517f08c379a000000000000000000000000000000000000000000000000000000000815260040161055a906123c6565b60405180910390fd5b6005600083815260200190815260200160002060009054906101000a900473ffffffffffffffffffffffffffffffffffffffff169050919050565b60006003600083815260200190815260200160002060009054906101000a900473ffffffffffffffffffffffffffffffffffffffff1690508073ffffffffffffffffffffffffffffffffffffffff168373ffffffffffffffffffffffffffffffffffffffff161415610645576040517f08c379a000000000000000000000000000000000000000000000000000000000815260040161063c90612426565b60405180910390fd5b8073ffffffffffffffffffffffffffffffffffffffff163373ffffffffffffffffffffffffffffffffffffffff16148061068557506106848133610c93565b5b6106c4576040517f08c379a00000000000000000000000000000000000000000000000000000000081526004016106bb90612366565b60405180910390fd5b6106ce8383610fdc565b505050565b600060149054906101000a900461ffff1681565b6106f13382611095565b610730576040517f08c379a000000000000000000000000000000000000000000000000000000000815260040161072790612446565b60405180910390fd5b61073b83838361119e565b505050565b61075b83838360405180602001604052806000815250610add565b505050565b3373ffffffffffffffffffffffffffffffffffffffff1661077f610a68565b73ffffffffffffffffffffffffffffffffffffffff16146107d5576040517f08c379a00000000000000000000000000000000000000000000000000000000081526004016107cc906123e6565b60405180910390fd5b80600290805190602001906107eb9291906119a7565b5050565b6000806003600084815260200190815260200160002060009054906101000a900473ffffffffffffffffffffffffffffffffffffffff169050600073ffffffffffffffffffffffffffffffffffffffff168173ffffffffffffffffffffffffffffffffffffffff161415610898576040517f08c379a000000000000000000000000000000000000000000000000000000000815260040161088f906123a6565b60405180910390fd5b80915050919050565b600280546108ae90612736565b80601f01602080910402602001604051908101604052809291908181526020018280546108da90612736565b80156109275780601f106108fc57610100808354040283529160200191610927565b820191906000526020600020905b81548152906001019060200180831161090a57829003601f168201915b505050505081565b60008073ffffffffffffffffffffffffffffffffffffffff168273ffffffffffffffffffffffffffffffffffffffff1614156109a0576040517f08c379a000000000000000000000000000000000000000000000000000000000815260040161099790612386565b60405180910390fd5b600460008373ffffffffffffffffffffffffffffffffffffffff1673ffffffffffffffffffffffffffffffffffffffff168152602001908152602001600020549050919050565b3373ffffffffffffffffffffffffffffffffffffffff16610a06610a68565b73ffffffffffffffffffffffffffffffffffffffff1614610a5c576040517f08c379a0000000000000000000000000000000000000000000000000000000008152600401610a53906123e6565b60405180910390fd5b610a666000611416565b565b60008060009054906101000a900473ffffffffffffffffffffffffffffffffffffffff16905090565b60606040518060400160405280600281526020017f4c4f000000000000000000000000000000000000000000000000000000000000815250905090565b610ad93383836114da565b5050565b610ae73383611095565b610b26576040517f08c379a0000000000000000000000000000000000000000000000000000000008152600401610b1d90612446565b60405180910390fd5b610b3284848484611647565b50505050565b3373ffffffffffffffffffffffffffffffffffffffff16610b57610a68565b73ffffffffffffffffffffffffffffffffffffffff1614610bad576040517f08c379a0000000000000000000000000000000000000000000000000000000008152600401610ba4906123e6565b60405180910390fd5b80600160006101000a81548173ffffffffffffffffffffffffffffffffffffffff021916908373ffffffffffffffffffffffffffffffffffffffff16021790555050565b6060610bfc82610f70565b610c3b576040517f08c379a0000000000000000000000000000000000000000000000000000000008152600401610c3290612406565b60405180910390fd5b6002610c46836116a3565b604051602001610c579291906121d3565b6040516020818303038152906040529050919050565b600160009054906101000a900473ffffffffffffffffffffffffffffffffffffffff1681565b600080600160009054906101000a900473ffffffffffffffffffffffffffffffffffffffff1690508273ffffffffffffffffffffffffffffffffffffffff168173ffffffffffffffffffffffffffffffffffffffff1663c4552791866040518263ffffffff1660e01b8152600401610d0b9190612202565b60206040518083038186803b158015610d2357600080fd5b505afa158015610d37573d6000803e3d6000fd5b505050506040513d601f19601f82011682018060405250810190610d5b9190611dc5565b73ffffffffffffffffffffffffffffffffffffffff161415610d81576001915050610e0f565b600660008573ffffffffffffffffffffffffffffffffffffffff1673ffffffffffffffffffffffffffffffffffffffff16815260200190815260200160002060008473ffffffffffffffffffffffffffffffffffffffff1673ffffffffffffffffffffffffffffffffffffffff16815260200190815260200160002060009054906101000a900460ff169150505b92915050565b3373ffffffffffffffffffffffffffffffffffffffff16610e34610a68565b73ffffffffffffffffffffffffffffffffffffffff1614610e8a576040517f08c379a0000000000000000000000000000000000000000000000000000000008152600401610e81906123e6565b60405180910390fd5b600073ffffffffffffffffffffffffffffffffffffffff168173ffffffffffffffffffffffffffffffffffffffff161415610efa576040517f08c379a0000000000000000000000000000000000000000000000000000000008152600401610ef1906122c6565b60405180910390fd5b610f0381611416565b50565b60007f01ffc9a7000000000000000000000000000000000000000000000000000000007bffffffffffffffffffffffffffffffffffffffffffffffffffffffff1916827bffffffffffffffffffffffffffffffffffffffffffffffffffffffff1916149050919050565b60008073ffffffffffffffffffffffffffffffffffffffff166003600084815260200190815260200160002060009054906101000a900473ffffffffffffffffffffffffffffffffffffffff1673ffffffffffffffffffffffffffffffffffffffff1614159050919050565b816005600083815260200190815260200160002060006101000a81548173ffffffffffffffffffffffffffffffffffffffff021916908373ffffffffffffffffffffffffffffffffffffffff160217905550808273ffffffffffffffffffffffffffffffffffffffff1661104f836107ef565b73ffffffffffffffffffffffffffffffffffffffff167f8c5be1e5ebec7d5bd14f71427d1e84f3dd0314c0f7b2291e5b200ac8c7c3b92560405160405180910390a45050565b60006110a082610f70565b6110df576040517f08c379a00000000000000000000000000000000000000000000000000000000081526004016110d690612346565b60405180910390fd5b60006003600084815260200190815260200160002060009054906101000a900473ffffffffffffffffffffffffffffffffffffffff1690508073ffffffffffffffffffffffffffffffffffffffff168473ffffffffffffffffffffffffffffffffffffffff16148061118457508373ffffffffffffffffffffffffffffffffffffffff1661116c84610519565b73ffffffffffffffffffffffffffffffffffffffff16145b8061119557506111948185610c93565b5b91505092915050565b8273ffffffffffffffffffffffffffffffffffffffff166003600083815260200190815260200160002060009054906101000a900473ffffffffffffffffffffffffffffffffffffffff1673ffffffffffffffffffffffffffffffffffffffff161461123f576040517f08c379a0000000000000000000000000000000000000000000000000000000008152600401611236906122e6565b60405180910390fd5b600073ffffffffffffffffffffffffffffffffffffffff168273ffffffffffffffffffffffffffffffffffffffff1614156112af576040517f08c379a00000000000000000000000000000000000000000000000000000000081526004016112a690612306565b60405180910390fd5b6112ba600082610fdc565b600460008473ffffffffffffffffffffffffffffffffffffffff1673ffffffffffffffffffffffffffffffffffffffff168152602001908152602001600020600081548092919061130a9061270c565b9190505550600460008373ffffffffffffffffffffffffffffffffffffffff1673ffffffffffffffffffffffffffffffffffffffff168152602001908152602001600020600081548092919061135f90612799565b9190505550816003600083815260200190815260200160002060006101000a81548173ffffffffffffffffffffffffffffffffffffffff021916908373ffffffffffffffffffffffffffffffffffffffff160217905550808273ffffffffffffffffffffffffffffffffffffffff168473ffffffffffffffffffffffffffffffffffffffff167fddf252ad1be2c89b69c2b068fc378daa952ba7f163c4a11628f55a4df523b3ef60405160405180910390a4505050565b60008060009054906101000a900473ffffffffffffffffffffffffffffffffffffffff169050816000806101000a81548173ffffffffffffffffffffffffffffffffffffffff021916908373ffffffffffffffffffffffffffffffffffffffff1602179055508173ffffffffffffffffffffffffffffffffffffffff168173ffffffffffffffffffffffffffffffffffffffff167f8be0079c531659141344cd1fd0a4f28419497f9722a3daafe3b4186f6b6457e060405160405180910390a35050565b8173ffffffffffffffffffffffffffffffffffffffff168373ffffffffffffffffffffffffffffffffffffffff161415611549576040517f08c379a000000000000000000000000000000000000000000000000000000000815260040161154090612326565b60405180910390fd5b80600660008573ffffffffffffffffffffffffffffffffffffffff1673ffffffffffffffffffffffffffffffffffffffff16815260200190815260200160002060008473ffffffffffffffffffffffffffffffffffffffff1673ffffffffffffffffffffffffffffffffffffffff16815260200190815260200160002060006101000a81548160ff0219169083151502179055508173ffffffffffffffffffffffffffffffffffffffff168373ffffffffffffffffffffffffffffffffffffffff167f17307eab39ab6107e8899845ad3d59bd9653f200f220920489ca2b5937696c318360405161163a9190612269565b60405180910390a3505050565b61165284848461119e565b61165e84848484611804565b61169d576040517f08c379a0000000000000000000000000000000000000000000000000000000008152600401611694906122a6565b60405180910390fd5b50505050565b606060008214156116eb576040518060400160405280600181526020017f300000000000000000000000000000000000000000000000000000000000000081525090506117ff565b600082905060005b6000821461171d57808061170690612799565b915050600a8261171691906125d1565b91506116f3565b60008167ffffffffffffffff811115611739576117386128cf565b5b6040519080825280601f01601f19166020018201604052801561176b5781602001600182028036833780820191505090505b5090505b600085146117f8576001826117849190612602565b9150600a8561179391906127e2565b603061179f919061257b565b60f81b8183815181106117b5576117b46128a0565b5b60200101907effffffffffffffffffffffffffffffffffffffffffffffffffffffffffffff1916908160001a905350600a856117f191906125d1565b945061176f565b8093505050505b919050565b60006118258473ffffffffffffffffffffffffffffffffffffffff16611994565b15611987578373ffffffffffffffffffffffffffffffffffffffff1663150b7a02338786866040518563ffffffff1660e01b8152600401611869949392919061221d565b602060405180830381600087803b15801561188357600080fd5b505af19250505080156118b457506040513d601f19601f820116820180604052508101906118b19190611d98565b60015b611937573d80600081146118e4576040519150601f19603f3d011682016040523d82523d6000602084013e6118e9565b606091505b5060008151141561192f576040517f08c379a0000000000000000000000000000000000000000000000000000000008152600401611926906122a6565b60405180910390fd5b805181602001fd5b63150b7a0260e01b7bffffffffffffffffffffffffffffffffffffffffffffffffffffffff1916817bffffffffffffffffffffffffffffffffffffffffffffffffffffffff19161491505061198c565b600190505b949350505050565b600080823b905060008111915050919050565b8280546119b390612736565b90600052602060002090601f0160209004810192826119d55760008555611a1c565b82601f106119ee57805160ff1916838001178555611a1c565b82800160010185558215611a1c579182015b82811115611a1b578251825591602001919060010190611a00565b5b509050611a299190611a2d565b5090565b5b80821115611a46576000816000905550600101611a2e565b5090565b6000611a5d611a58846124c1565b61249c565b905082815260208101848484011115611a7957611a78612903565b5b611a848482856126ca565b509392505050565b6000611a9f611a9a846124f2565b61249c565b905082815260208101848484011115611abb57611aba612903565b5b611ac68482856126ca565b509392505050565b600081359050611add81612d52565b92915050565b600081359050611af281612d69565b92915050565b600081359050611b0781612d80565b92915050565b600081519050611b1c81612d80565b92915050565b600082601f830112611b3757611b366128fe565b5b8135611b47848260208601611a4a565b91505092915050565b600081519050611b5f81612d97565b92915050565b600082601f830112611b7a57611b796128fe565b5b8135611b8a848260208601611a8c565b91505092915050565b600081359050611ba281612dae565b92915050565b600060208284031215611bbe57611bbd61290d565b5b6000611bcc84828501611ace565b91505092915050565b60008060408385031215611bec57611beb61290d565b5b6000611bfa85828601611ace565b9250506020611c0b85828601611ace565b9150509250929050565b600080600060608486031215611c2e57611c2d61290d565b5b6000611c3c86828701611ace565b9350506020611c4d86828701611ace565b9250506040611c5e86828701611b93565b9150509250925092565b60008060008060808587031215611c8257611c8161290d565b5b6000611c9087828801611ace565b9450506020611ca187828801611ace565b9350506040611cb287828801611b93565b925050606085013567ffffffffffffffff811115611cd357611cd2612908565b5b611cdf87828801611b22565b91505092959194509250565b60008060408385031215611d0257611d0161290d565b5b6000611d1085828601611ace565b9250506020611d2185828601611ae3565b9150509250929050565b60008060408385031215611d4257611d4161290d565b5b6000611d5085828601611ace565b9250506020611d6185828601611b93565b9150509250929050565b600060208284031215611d8157611d8061290d565b5b6000611d8f84828501611af8565b91505092915050565b600060208284031215611dae57611dad61290d565b5b6000611dbc84828501611b0d565b91505092915050565b600060208284031215611ddb57611dda61290d565b5b6000611de984828501611b50565b91505092915050565b600060208284031215611e0857611e0761290d565b5b600082013567ffffffffffffffff811115611e2657611e25612908565b5b611e3284828501611b65565b91505092915050565b600060208284031215611e5157611e5061290d565b5b6000611e5f84828501611b93565b91505092915050565b611e7181612636565b82525050565b611e8081612648565b82525050565b6000611e9182612538565b611e9b818561254e565b9350611eab8185602086016126d9565b611eb481612912565b840191505092915050565b6000611eca82612543565b611ed4818561255f565b9350611ee48185602086016126d9565b611eed81612912565b840191505092915050565b6000611f0382612543565b611f0d8185612570565b9350611f1d8185602086016126d9565b80840191505092915050565b60008154611f3681612736565b611f408186612570565b94506001821660008114611f5b5760018114611f6c57611f9f565b60ff19831686528186019350611f9f565b611f7585612523565b60005b83811015611f9757815481890152600182019150602081019050611f78565b838801955050505b50505092915050565b6000611fb560328361255f565b9150611fc082612923565b604082019050919050565b6000611fd860268361255f565b9150611fe382612972565b604082019050919050565b6000611ffb60258361255f565b9150612006826129c1565b604082019050919050565b600061201e60248361255f565b915061202982612a10565b604082019050919050565b600061204160198361255f565b915061204c82612a5f565b602082019050919050565b6000612064602c8361255f565b915061206f82612a88565b604082019050919050565b600061208760388361255f565b915061209282612ad7565b604082019050919050565b60006120aa602a8361255f565b91506120b582612b26565b604082019050919050565b60006120cd60298361255f565b91506120d882612b75565b604082019050919050565b60006120f0602c8361255f565b91506120fb82612bc4565b604082019050919050565b6000612113600583612570565b915061211e82612c13565b600582019050919050565b600061213660208361255f565b915061214182612c3c565b602082019050919050565b6000612159602f8361255f565b915061216482612c65565b604082019050919050565b600061217c60218361255f565b915061218782612cb4565b604082019050919050565b600061219f60318361255f565b91506121aa82612d03565b604082019050919050565b6121be81612692565b82525050565b6121cd816126c0565b82525050565b60006121df8285611f29565b91506121eb8284611ef8565b91506121f682612106565b91508190509392505050565b60006020820190506122176000830184611e68565b92915050565b60006080820190506122326000830187611e68565b61223f6020830186611e68565b61224c60408301856121c4565b818103606083015261225e8184611e86565b905095945050505050565b600060208201905061227e6000830184611e77565b92915050565b6000602082019050818103600083015261229e8184611ebf565b905092915050565b600060208201905081810360008301526122bf81611fa8565b9050919050565b600060208201905081810360008301526122df81611fcb565b9050919050565b600060208201905081810360008301526122ff81611fee565b9050919050565b6000602082019050818103600083015261231f81612011565b9050919050565b6000602082019050818103600083015261233f81612034565b9050919050565b6000602082019050818103600083015261235f81612057565b9050919050565b6000602082019050818103600083015261237f8161207a565b9050919050565b6000602082019050818103600083015261239f8161209d565b9050919050565b600060208201905081810360008301526123bf816120c0565b9050919050565b600060208201905081810360008301526123df816120e3565b9050919050565b600060208201905081810360008301526123ff81612129565b9050919050565b6000602082019050818103600083015261241f8161214c565b9050919050565b6000602082019050818103600083015261243f8161216f565b9050919050565b6000602082019050818103600083015261245f81612192565b9050919050565b600060208201905061247b60008301846121b5565b92915050565b600060208201905061249660008301846121c4565b92915050565b60006124a66124b7565b90506124b28282612768565b919050565b6000604051905090565b600067ffffffffffffffff8211156124dc576124db6128cf565b5b6124e582612912565b9050602081019050919050565b600067ffffffffffffffff82111561250d5761250c6128cf565b5b61251682612912565b9050602081019050919050565b60008190508160005260206000209050919050565b600081519050919050565b600081519050919050565b600082825260208201905092915050565b600082825260208201905092915050565b600081905092915050565b6000612586826126c0565b9150612591836126c0565b9250827fffffffffffffffffffffffffffffffffffffffffffffffffffffffffffffffff038211156125c6576125c5612813565b5b828201905092915050565b60006125dc826126c0565b91506125e7836126c0565b9250826125f7576125f6612842565b5b828204905092915050565b600061260d826126c0565b9150612618836126c0565b92508282101561262b5761262a612813565b5b828203905092915050565b6000612641826126a0565b9050919050565b60008115159050919050565b60007fffffffff0000000000000000000000000000000000000000000000000000000082169050919050565b600061268b82612636565b9050919050565b600061ffff82169050919050565b600073ffffffffffffffffffffffffffffffffffffffff82169050919050565b6000819050919050565b82818337600083830152505050565b60005b838110156126f75780820151818401526020810190506126dc565b83811115612706576000848401525b50505050565b6000612717826126c0565b9150600082141561272b5761272a612813565b5b600182039050919050565b6000600282049050600182168061274e57607f821691505b6020821081141561276257612761612871565b5b50919050565b61277182612912565b810181811067ffffffffffffffff821117156127905761278f6128cf565b5b80604052505050565b60006127a4826126c0565b91507fffffffffffffffffffffffffffffffffffffffffffffffffffffffffffffffff8214156127d7576127d6612813565b5b600182019050919050565b60006127ed826126c0565b91506127f8836126c0565b92508261280857612807612842565b5b828206905092915050565b7f4e487b7100000000000000000000000000000000000000000000000000000000600052601160045260246000fd5b7f4e487b7100000000000000000000000000000000000000000000000000000000600052601260045260246000fd5b7f4e487b7100000000000000000000000000000000000000000000000000000000600052602260045260246000fd5b7f4e487b7100000000000000000000000000000000000000000000000000000000600052603260045260246000fd5b7f4e487b7100000000000000000000000000000000000000000000000000000000600052604160045260246000fd5b600080fd5b600080fd5b600080fd5b600080fd5b6000601f19601f8301169050919050565b7f4552433732313a207472616e7366657220746f206e6f6e20455243373231526560008201527f63656976657220696d706c656d656e7465720000000000000000000000000000602082015250565b7f4f776e61626c653a206e6577206f776e657220697320746865207a65726f206160008201527f6464726573730000000000000000000000000000000000000000000000000000602082015250565b7f4552433732313a207472616e736665722066726f6d20696e636f72726563742060008201527f6f776e6572000000000000000000000000000000000000000000000000000000602082015250565b7f4552433732313a207472616e7366657220746f20746865207a65726f2061646460008201527f7265737300000000000000000000000000000000000000000000000000000000602082015250565b7f4552433732313a20617070726f766520746f2063616c6c657200000000000000600082015250565b7f4552433732313a206f70657261746f7220717565727920666f72206e6f6e657860008201527f697374656e7420746f6b656e0000000000000000000000000000000000000000602082015250565b7f4552433732313a20617070726f76652063616c6c6572206973206e6f74206f7760008201527f6e6572206e6f7220617070726f76656420666f7220616c6c0000000000000000602082015250565b7f4552433732313a2062616c616e636520717565727920666f7220746865207a6560008201527f726f206164647265737300000000000000000000000000000000000000000000602082015250565b7f4552433732313a206f776e657220717565727920666f72206e6f6e657869737460008201527f656e7420746f6b656e0000000000000000000000000000000000000000000000602082015250565b7f4552433732313a20617070726f76656420717565727920666f72206e6f6e657860008201527f697374656e7420746f6b656e0000000000000000000000000000000000000000602082015250565b7f2e6a736f6e000000000000000000000000000000000000000000000000000000600082015250565b7f4f776e61626c653a2063616c6c6572206973206e6f7420746865206f776e6572600082015250565b7f4552433732314d657461646174613a2055524920717565727920666f72206e6f60008201527f6e6578697374656e7420746f6b656e0000000000000000000000000000000000602082015250565b7f4552433732313a20617070726f76616c20746f2063757272656e74206f776e6560008201527f7200000000000000000000000000000000000000000000000000000000000000602082015250565b7f4552433732313a207472616e736665722063616c6c6572206973206e6f74206f60008201527f776e6572206e6f7220617070726f766564000000000000000000000000000000602082015250565b612d5b81612636565b8114612d6657600080fd5b50565b612d7281612648565b8114612d7d57600080fd5b50565b612d8981612654565b8114612d9457600080fd5b50565b612da081612680565b8114612dab57600080fd5b50565b612db7816126c0565b8114612dc257600080fd5b5056fea2646970667358221220bc86367f536386ed0ffcc632e0cc2183010e880b338ddf5ef9527c7663390fb964736f6c63430008070033",
  "immutableReferences": {},
  "source": "// SPDX-License-Identifier: MIT\r\n\r\npragma solidity ^0.8.7;\r\n\r\n\r\n/**\r\n * @title LoFi Originals\r\n * @author The Core Devs (@TheCoreDevs)\r\n */\r\n\r\n\r\n// File: contracts/Ownable.sol\r\n\r\n/**\r\n * @dev Contract module which provides a basic access control mechanism, where\r\n * there is an account (an owner) that can be granted exclusive access to\r\n * specific functions.\r\n *\r\n * By default, the owner account will be the one that deploys the contract. This\r\n * can later be changed with {transferOwnership}.\r\n *\r\n * This module is used through inheritance. It will make available the modifier\r\n * `onlyOwner`, which can be applied to your functions to restrict their use to\r\n * the owner.\r\n *\r\n * Source: openzeppelin\r\n */\r\nabstract contract Ownable {\r\n    address private _owner;\r\n\r\n    event OwnershipTransferred(address indexed previousOwner, address indexed newOwner);\r\n\r\n    /**\r\n     * @dev Initializes the contract setting the deployer as the initial owner.\r\n     */\r\n    constructor() {\r\n        _setOwner(msg.sender);\r\n    }\r\n\r\n    /**\r\n     * @dev Returns the address of the current owner.\r\n     */\r\n    function owner() public view virtual returns (address) {\r\n        return _owner;\r\n    }\r\n\r\n    /**\r\n     * @dev Throws if called by any account other than the owner.\r\n     */\r\n    modifier onlyOwner() {\r\n        require(owner() == msg.sender, \"Ownable: caller is not the owner\");\r\n        _;\r\n    }\r\n\r\n    /**\r\n     * @dev Leaves the contract without owner. It will not be possible to call\r\n     * `onlyOwner` functions anymore. Can only be called by the current owner.\r\n     *\r\n     * NOTE: Renouncing ownership will leave the contract without an owner,\r\n     * thereby removing any functionality that is only available to the owner.\r\n     */\r\n    function renounceOwnership() external virtual onlyOwner {\r\n        _setOwner(address(0));\r\n    }\r\n\r\n    /**\r\n     * @dev Transfers ownership of the contract to a new account (`newOwner`).\r\n     * Can only be called by the current owner.\r\n     */\r\n    function transferOwnership(address newOwner) external virtual onlyOwner {\r\n        require(newOwner != address(0), \"Ownable: new owner is the zero address\");\r\n        _setOwner(newOwner);\r\n    }\r\n\r\n    function _setOwner(address newOwner) private {\r\n        address oldOwner = _owner;\r\n        _owner = newOwner;\r\n        emit OwnershipTransferred(oldOwner, newOwner);\r\n    }\r\n}\r\n\r\n// File: Strings.sol\r\n\r\n/**\r\n * Source: Openzeppelin\r\n */\r\n\r\n/**\r\n * @dev String operations.\r\n */\r\nlibrary Strings {\r\n\r\n    /**\r\n     * @dev Converts a `uint256` to its ASCII `string` decimal representation.\r\n     */\r\n    function toString(uint256 value) internal pure returns (string memory) {\r\n        // Inspired by OraclizeAPI's implementation - MIT licence\r\n        // https://github.com/oraclize/ethereum-api/blob/b42146b063c7d6ee1358846c198246239e9360e8/oraclizeAPI_0.4.25.sol\r\n\r\n        if (value == 0) {\r\n            return \"0\";\r\n        }\r\n        uint256 temp = value;\r\n        uint256 digits;\r\n        while (temp != 0) {\r\n            digits++;\r\n            temp /= 10;\r\n        }\r\n        bytes memory buffer = new bytes(digits);\r\n        while (value != 0) {\r\n            digits -= 1;\r\n            buffer[digits] = bytes1(uint8(48 + uint256(value % 10)));\r\n            value /= 10;\r\n        }\r\n        return string(buffer);\r\n    }\r\n}\r\n\r\n// File: ECDSA.sol\r\n\r\n// OpenZeppelin Contracts v4.4.0 (utils/cryptography/ECDSA.sol)\r\n\r\n\r\n/**\r\n * @dev Elliptic Curve Digital Signature Algorithm (ECDSA) operations.\r\n *\r\n * These functions can be used to verify that a message was signed by the holder\r\n * of the private keys of a given address.\r\n */\r\nlibrary ECDSA {\r\n    enum RecoverError {\r\n        NoError,\r\n        InvalidSignature,\r\n        InvalidSignatureLength,\r\n        InvalidSignatureS,\r\n        InvalidSignatureV\r\n    }\r\n\r\n    function _throwError(RecoverError error) private pure {\r\n        if (error == RecoverError.NoError) {\r\n            return; // no error: do nothing\r\n        } else if (error == RecoverError.InvalidSignature) {\r\n            revert(\"ECDSA: invalid signature\");\r\n        } else if (error == RecoverError.InvalidSignatureLength) {\r\n            revert(\"ECDSA: invalid signature length\");\r\n        } else if (error == RecoverError.InvalidSignatureS) {\r\n            revert(\"ECDSA: invalid signature 's' value\");\r\n        } else if (error == RecoverError.InvalidSignatureV) {\r\n            revert(\"ECDSA: invalid signature 'v' value\");\r\n        }\r\n    }\r\n\r\n    /**\r\n     * @dev Returns the address that signed a hashed message (`hash`) with\r\n     * `signature` or error string. This address can then be used for verification purposes.\r\n     *\r\n     * The `ecrecover` EVM opcode allows for malleable (non-unique) signatures:\r\n     * this function rejects them by requiring the `s` value to be in the lower\r\n     * half order, and the `v` value to be either 27 or 28.\r\n     *\r\n     * IMPORTANT: `hash` _must_ be the result of a hash operation for the\r\n     * verification to be secure: it is possible to craft signatures that\r\n     * recover to arbitrary addresses for non-hashed data. A safe way to ensure\r\n     * this is by receiving a hash of the original message (which may otherwise\r\n     * be too long), and then calling {toEthSignedMessageHash} on it.\r\n     *\r\n     * Documentation for signature generation:\r\n     * - with https://web3js.readthedocs.io/en/v1.3.4/web3-eth-accounts.html#sign[Web3.js]\r\n     * - with https://docs.ethers.io/v5/api/signer/#Signer-signMessage[ethers]\r\n     *\r\n     * _Available since v4.3._\r\n     */\r\n    function tryRecover(bytes32 hash, bytes memory signature) internal pure returns (address, RecoverError) {\r\n        // Check the signature length\r\n        // - case 65: r,s,v signature (standard)\r\n        // - case 64: r,vs signature (cf https://eips.ethereum.org/EIPS/eip-2098) _Available since v4.1._\r\n        if (signature.length == 65) {\r\n            bytes32 r;\r\n            bytes32 s;\r\n            uint8 v;\r\n            // ecrecover takes the signature parameters, and the only way to get them\r\n            // currently is to use assembly.\r\n            assembly {\r\n                r := mload(add(signature, 0x20))\r\n                s := mload(add(signature, 0x40))\r\n                v := byte(0, mload(add(signature, 0x60)))\r\n            }\r\n            return tryRecover(hash, v, r, s);\r\n        } else if (signature.length == 64) {\r\n            bytes32 r;\r\n            bytes32 vs;\r\n            // ecrecover takes the signature parameters, and the only way to get them\r\n            // currently is to use assembly.\r\n            assembly {\r\n                r := mload(add(signature, 0x20))\r\n                vs := mload(add(signature, 0x40))\r\n            }\r\n            return tryRecover(hash, r, vs);\r\n        } else {\r\n            return (address(0), RecoverError.InvalidSignatureLength);\r\n        }\r\n    }\r\n\r\n    /**\r\n     * @dev Returns the address that signed a hashed message (`hash`) with\r\n     * `signature`. This address can then be used for verification purposes.\r\n     *\r\n     * The `ecrecover` EVM opcode allows for malleable (non-unique) signatures:\r\n     * this function rejects them by requiring the `s` value to be in the lower\r\n     * half order, and the `v` value to be either 27 or 28.\r\n     *\r\n     * IMPORTANT: `hash` _must_ be the result of a hash operation for the\r\n     * verification to be secure: it is possible to craft signatures that\r\n     * recover to arbitrary addresses for non-hashed data. A safe way to ensure\r\n     * this is by receiving a hash of the original message (which may otherwise\r\n     * be too long), and then calling {toEthSignedMessageHash} on it.\r\n     */\r\n    function recover(bytes32 hash, bytes memory signature) internal pure returns (address) {\r\n        (address recovered, RecoverError error) = tryRecover(hash, signature);\r\n        _throwError(error);\r\n        return recovered;\r\n    }\r\n\r\n    /**\r\n     * @dev Overload of {ECDSA-tryRecover} that receives the `r` and `vs` short-signature fields separately.\r\n     *\r\n     * See https://eips.ethereum.org/EIPS/eip-2098[EIP-2098 short signatures]\r\n     *\r\n     * _Available since v4.3._\r\n     */\r\n    function tryRecover(\r\n        bytes32 hash,\r\n        bytes32 r,\r\n        bytes32 vs\r\n    ) internal pure returns (address, RecoverError) {\r\n        bytes32 s;\r\n        uint8 v;\r\n        assembly {\r\n            s := and(vs, 0x7fffffffffffffffffffffffffffffffffffffffffffffffffffffffffffffff)\r\n            v := add(shr(255, vs), 27)\r\n        }\r\n        return tryRecover(hash, v, r, s);\r\n    }\r\n\r\n    /**\r\n     * @dev Overload of {ECDSA-tryRecover} that receives the `v`,\r\n     * `r` and `s` signature fields separately.\r\n     *\r\n     * _Available since v4.3._\r\n     */\r\n    function tryRecover(\r\n        bytes32 hash,\r\n        uint8 v,\r\n        bytes32 r,\r\n        bytes32 s\r\n    ) internal pure returns (address, RecoverError) {\r\n        // EIP-2 still allows signature malleability for ecrecover(). Remove this possibility and make the signature\r\n        // unique. Appendix F in the Ethereum Yellow paper (https://ethereum.github.io/yellowpaper/paper.pdf), defines\r\n        // the valid range for s in (301): 0 < s < secp256k1n  2 + 1, and for v in (302): v  {27, 28}. Most\r\n        // signatures from current libraries generate a unique signature with an s-value in the lower half order.\r\n        //\r\n        // If your library generates malleable signatures, such as s-values in the upper range, calculate a new s-value\r\n        // with 0xFFFFFFFFFFFFFFFFFFFFFFFFFFFFFFFEBAAEDCE6AF48A03BBFD25E8CD0364141 - s1 and flip v from 27 to 28 or\r\n        // vice versa. If your library also generates signatures with 0/1 for v instead 27/28, add 27 to v to accept\r\n        // these malleable signatures as well.\r\n        if (uint256(s) > 0x7FFFFFFFFFFFFFFFFFFFFFFFFFFFFFFF5D576E7357A4501DDFE92F46681B20A0) {\r\n            return (address(0), RecoverError.InvalidSignatureS);\r\n        }\r\n        if (v != 27 && v != 28) {\r\n            return (address(0), RecoverError.InvalidSignatureV);\r\n        }\r\n\r\n        // If the signature is valid (and not malleable), return the signer address\r\n        address signer = ecrecover(hash, v, r, s);\r\n        if (signer == address(0)) {\r\n            return (address(0), RecoverError.InvalidSignature);\r\n        }\r\n\r\n        return (signer, RecoverError.NoError);\r\n    }\r\n\r\n    /**\r\n     * @dev Returns an Ethereum Signed Message, created from a `hash`. This\r\n     * produces hash corresponding to the one signed with the\r\n     * https://eth.wiki/json-rpc/API#eth_sign[`eth_sign`]\r\n     * JSON-RPC method as part of EIP-191.\r\n     *\r\n     * See {recover}.\r\n     */\r\n    function toEthSignedMessageHash(bytes32 hash) internal pure returns (bytes32) {\r\n        // 32 is the length in bytes of hash,\r\n        // enforced by the type signature above\r\n        return keccak256(abi.encodePacked(\"\\x19Ethereum Signed Message:\\n32\", hash));\r\n    }\r\n\r\n}\r\n\r\n// File: Address.sol0\r\n\r\n/**\r\n * Source: Openzeppelin\r\n */\r\n\r\n/**\r\n * @dev Collection of functions related to the address type\r\n */\r\nlibrary Address {\r\n    /**\r\n     * @dev Returns true if `account` is a contract.\r\n     *\r\n     * [IMPORTANT]\r\n     * ====\r\n     * It is unsafe to assume that an address for which this function returns\r\n     * false is an externally-owned account (EOA) and not a contract.\r\n     *\r\n     * Among others, `isContract` will return false for the following\r\n     * types of addresses:\r\n     *\r\n     *  - an externally-owned account\r\n     *  - a contract in construction\r\n     *  - an address where a contract will be created\r\n     *  - an address where a contract lived, but was destroyed\r\n     * ====\r\n     */\r\n    function isContract(address account) internal view returns (bool) {\r\n        // This method relies on extcodesize, which returns 0 for contracts in\r\n        // construction, since the code is only stored at the end of the\r\n        // constructor execution.\r\n\r\n        uint256 size;\r\n        assembly {\r\n            size := extcodesize(account)\r\n        }\r\n        return size > 0;\r\n    }\r\n}\r\n\r\n// File: IERC721Receiver.sol\r\n\r\n/**\r\n * @title ERC721 token receiver interface\r\n * @dev Interface for any contract that wants to support safeTransfers\r\n * from ERC721 asset contracts.\r\n */\r\ninterface IERC721Receiver {\r\n    /**\r\n     * @dev Whenever an {IERC721} `tokenId` token is transferred to this contract via {IERC721-safeTransferFrom}\r\n     * by `operator` from `from`, this function is called.\r\n     *\r\n     * It must return its Solidity selector to confirm the token transfer.\r\n     * If any other value is returned or the interface is not implemented by the recipient, the transfer will be reverted.\r\n     *\r\n     * The selector can be obtained in Solidity with `IERC721.onERC721Received.selector`.\r\n     */\r\n    function onERC721Received(\r\n        address operator,\r\n        address from,\r\n        uint256 tokenId,\r\n        bytes calldata data\r\n    ) external returns (bytes4);\r\n}\r\n\r\n// File: IERC165.sol\r\n\r\n// https://eips.ethereum.org/EIPS/eip-165\r\n\r\n\r\ninterface IERC165 {\r\n    /// @notice Query if a contract implements an interface\r\n    /// @param interfaceID The interface identifier, as specified in ERC-165\r\n    /// @dev Interface identification is specified in ERC-165. This function\r\n    ///  uses less than 30,000 gas.\r\n    /// @return `true` if the contract implements `interfaceID` and\r\n    ///  `interfaceID` is not 0xffffffff, `false` otherwise\r\n    function supportsInterface(bytes4 interfaceID) external view returns (bool);\r\n}\r\n\r\n// File: IERC2981.sol\r\n\r\n\r\n/**\r\n * Source: Openzeppelin\r\n */\r\n\r\n\r\n/**\r\n * @dev Interface for the NFT Royalty Standard\r\n */\r\ninterface IERC2981 is IERC165 {\r\n    /**\r\n     * @dev Called with the sale price to determine how much royalty is owed and to whom.\r\n     * @param tokenId - the NFT asset queried for royalty information\r\n     * @param salePrice - the sale price of the NFT asset specified by `tokenId`\r\n     * @return receiver - address of who should be sent the royalty payment\r\n     * @return royaltyAmount - the royalty payment amount for `salePrice`\r\n     */\r\n    function royaltyInfo(uint256 tokenId, uint256 salePrice)\r\n        external\r\n        view\r\n        returns (address receiver, uint256 royaltyAmount);\r\n}\r\n\r\n// File: ERC165.sol\r\n\r\n\r\n/**\r\n * Source: Openzeppelin\r\n */\r\n\r\n\r\n/**\r\n * @dev Implementation of the {IERC165} interface.\r\n *\r\n * Contracts that want to implement ERC165 should inherit from this contract and override {supportsInterface} to check\r\n * for the additional interface id that will be supported. For example:\r\n *\r\n * ```solidity\r\n * function supportsInterface(bytes4 interfaceId) public view virtual override returns (bool) {\r\n *     return interfaceId == type(MyInterface).interfaceId || super.supportsInterface(interfaceId);\r\n * }\r\n * ```\r\n *\r\n * Alternatively, {ERC165Storage} provides an easier to use but more expensive implementation.\r\n */\r\nabstract contract ERC165 is IERC165 {\r\n    /**\r\n     * @dev See {IERC165-supportsInterface}.\r\n     */\r\n    function supportsInterface(bytes4 interfaceId) public view virtual override returns (bool) {\r\n        return interfaceId == type(IERC165).interfaceId;\r\n    }\r\n}\r\n\r\n// File: IERC721.sol\r\n\r\n// https://eips.ethereum.org/EIPS/eip-721, http://erc721.org/\r\n\r\n\r\n/// @title ERC-721 Non-Fungible Token Standard\r\n/// @dev See https://eips.ethereum.org/EIPS/eip-721\r\n///  Note: the ERC-165 identifier for this interface is 0x80ac58cd.\r\ninterface IERC721 is IERC165 {\r\n    /// @dev This emits when ownership of any NFT changes by any mechanism.\r\n    ///  This event emits when NFTs are created (`from` == 0) and destroyed\r\n    ///  (`to` == 0). Exception: during contract creation, any number of NFTs\r\n    ///  may be created and assigned without emitting Transfer. At the time of\r\n    ///  any transfer, the approved address for that NFT (if any) is reset to none.\r\n    event Transfer(address indexed _from, address indexed _to, uint256 indexed _tokenId);\r\n\r\n    /// @dev This emits when the approved address for an NFT is changed or\r\n    ///  reaffirmed. The zero address indicates there is no approved address.\r\n    ///  When a Transfer event emits, this also indicates that the approved\r\n    ///  address for that NFT (if any) is reset to none.\r\n    event Approval(address indexed _owner, address indexed _approved, uint256 indexed _tokenId);\r\n\r\n    /// @dev This emits when an operator is enabled or disabled for an owner.\r\n    ///  The operator can manage all NFTs of the owner.\r\n    event ApprovalForAll(address indexed _owner, address indexed _operator, bool _approved);\r\n\r\n    /// @notice Count all NFTs assigned to an owner\r\n    /// @dev NFTs assigned to the zero address are considered invalid, and this\r\n    ///  function throws for queries about the zero address.\r\n    /// @param _owner An address for whom to query the balance\r\n    /// @return The number of NFTs owned by `_owner`, possibly zero\r\n    function balanceOf(address _owner) external view returns (uint256);\r\n\r\n    /// @notice Find the owner of an NFT\r\n    /// @dev NFTs assigned to zero address are considered invalid, and queries\r\n    ///  about them do throw.\r\n    /// @param _tokenId The identifier for an NFT\r\n    /// @return The address of the owner of the NFT\r\n    function ownerOf(uint256 _tokenId) external view returns (address);\r\n\r\n    /// @notice Transfers the ownership of an NFT from one address to another address\r\n    /// @dev Throws unless `msg.sender` is the current owner, an authorized\r\n    ///  operator, or the approved address for this NFT. Throws if `_from` is\r\n    ///  not the current owner. Throws if `_to` is the zero address. Throws if\r\n    ///  `_tokenId` is not a valid NFT. When transfer is complete, this function\r\n    ///  checks if `_to` is a smart contract (code size > 0). If so, it calls\r\n    ///  `onERC721Received` on `_to` and throws if the return value is not\r\n    ///  `bytes4(keccak256(\"onERC721Received(address,address,uint256,bytes)\"))`.\r\n    /// @param _from The current owner of the NFT\r\n    /// @param _to The new owner\r\n    /// @param _tokenId The NFT to transfer\r\n    /// @param data Additional data with no specified format, sent in call to `_to`\r\n    function safeTransferFrom(address _from, address _to, uint256 _tokenId, bytes memory data) external;\r\n\r\n    /// @notice Transfers the ownership of an NFT from one address to another address\r\n    /// @dev This works identically to the other function with an extra data parameter,\r\n    ///  except this function just sets data to \"\".\r\n    /// @param _from The current owner of the NFT\r\n    /// @param _to The new owner\r\n    /// @param _tokenId The NFT to transfer\r\n    function safeTransferFrom(address _from, address _to, uint256 _tokenId) external;\r\n\r\n    /// @notice Transfer ownership of an NFT -- THE CALLER IS RESPONSIBLE\r\n    ///  TO CONFIRM THAT `_to` IS CAPABLE OF RECEIVING NFTS OR ELSE\r\n    ///  THEY MAY BE PERMANENTLY LOST\r\n    /// @dev Throws unless `msg.sender` is the current owner, an authorized\r\n    ///  operator, or the approved address for this NFT. Throws if `_from` is\r\n    ///  not the current owner. Throws if `_to` is the zero address. Throws if\r\n    ///  `_tokenId` is not a valid NFT.\r\n    /// @param _from The current owner of the NFT\r\n    /// @param _to The new owner\r\n    /// @param _tokenId The NFT to transfer\r\n    function transferFrom(address _from, address _to, uint256 _tokenId) external;\r\n\r\n    /// @notice Change or reaffirm the approved address for an NFT\r\n    /// @dev The zero address indicates there is no approved address.\r\n    ///  Throws unless `msg.sender` is the current NFT owner, or an authorized\r\n    ///  operator of the current owner.\r\n    /// @param _approved The new approved NFT controller\r\n    /// @param _tokenId The NFT to approve\r\n    function approve(address _approved, uint256 _tokenId) external;\r\n\r\n    /// @notice Enable or disable approval for a third party (\"operator\") to manage\r\n    ///  all of `msg.sender`'s assets\r\n    /// @dev Emits the ApprovalForAll event. The contract MUST allow\r\n    ///  multiple operators per owner.\r\n    /// @param _operator Address to add to the set of authorized operators\r\n    /// @param _approved True if the operator is approved, false to revoke approval\r\n    function setApprovalForAll(address _operator, bool _approved) external;\r\n\r\n    /// @notice Get the approved address for a single NFT\r\n    /// @dev Throws if `_tokenId` is not a valid NFT.\r\n    /// @param _tokenId The NFT to find the approved address for\r\n    /// @return The approved address for this NFT, or the zero address if there is none\r\n    function getApproved(uint256 _tokenId) external view returns (address);\r\n\r\n    /// @notice Query if an address is an authorized operator for another address\r\n    /// @param _owner The address that owns the NFTs\r\n    /// @param _operator The address that acts on behalf of the owner\r\n    /// @return True if `_operator` is an approved operator for `_owner`, false otherwise\r\n    function isApprovedForAll(address _owner, address _operator) external view returns (bool);\r\n}\r\n\r\n// File: IERC721Metadata.sol\r\n\r\n\r\n/**\r\n * @title ERC-721 Non-Fungible Token Standard, optional metadata extension\r\n * @dev See https://eips.ethereum.org/EIPS/eip-721\r\n */\r\ninterface IERC721Metadata is IERC721 {\r\n    /**\r\n     * @dev Returns the token collection name.\r\n     */\r\n    function name() external view returns (string memory);\r\n\r\n    /**\r\n     * @dev Returns the token collection symbol.\r\n     */\r\n    function symbol() external view returns (string memory);\r\n\r\n    /**\r\n     * @dev Returns the Uniform Resource Identifier (URI) for `tokenId` token.\r\n     */\r\n    function tokenURI(uint256 tokenId) external view returns (string memory);\r\n}\r\n\r\n// File: ERC721.sol\r\n\r\n/**\r\n * @dev Implementation of https://eips.ethereum.org/EIPS/eip-721[ERC721] Non-Fungible Token Standard, including\r\n * the Metadata extension\r\n * Made for efficiancy!\r\n */\r\ncontract ERC721 is ERC165, IERC721, IERC721Metadata, Ownable {\r\n    using Address for address;\r\n    using Strings for uint256;\r\n\r\n    uint16 public totalSupply;\r\n\r\n    address public proxyRegistryAddress;\r\n\r\n    string public baseURI;\r\n\r\n    // Mapping from token ID to owner address\r\n    mapping(uint256 => address) internal _owners;\r\n\r\n    // Mapping owner address to token count\r\n    mapping(address => uint256) internal _balances;\r\n\r\n    // Mapping from token ID to approved address\r\n    mapping(uint256 => address) private _tokenApprovals;\r\n\r\n    // Mapping from owner to operator approvals\r\n    mapping(address => mapping(address => bool)) private _operatorApprovals;\r\n\r\n\r\n    constructor(address _openseaProxyRegistry, string memory _baseURI) {\r\n        proxyRegistryAddress = _openseaProxyRegistry;\r\n        baseURI = _baseURI;\r\n    }\r\n\r\n    /**\r\n     * @dev See {IERC165-supportsInterface}.\r\n     */\r\n    function supportsInterface(bytes4 interfaceId) public view virtual override(ERC165, IERC165) returns (bool) {\r\n        return\r\n            interfaceId == type(IERC721).interfaceId ||\r\n            interfaceId == type(IERC721Metadata).interfaceId ||\r\n            super.supportsInterface(interfaceId);\r\n    }\r\n\r\n    /**\r\n     * @dev See {IERC721-balanceOf}.\r\n     */\r\n    function balanceOf(address owner) external view override returns (uint256) {\r\n        require(owner != address(0), \"ERC721: balance query for the zero address\");\r\n        return _balances[owner];\r\n    }\r\n\r\n    /**\r\n     * @dev See {IERC721-ownerOf}.\r\n     */\r\n    function ownerOf(uint256 tokenId) public view override returns (address) {\r\n        address owner = _owners[tokenId];\r\n        require(owner != address(0), \"ERC721: owner query for nonexistent token\");\r\n        return owner;\r\n    }\r\n\r\n    /**\r\n     * @dev See {IERC721Metadata-name}.\r\n     */\r\n    function name() external pure override returns (string memory) {\r\n        return \"Lofi Originals\";\r\n    }\r\n\r\n    /**\r\n     * @dev See {IERC721Metadata-symbol}.\r\n     */\r\n    function symbol() external pure override returns (string memory) {\r\n        return \"LO\";\r\n    }\r\n\r\n    /**\r\n     * @dev See {IERC721Metadata-tokenURI}.\r\n     */\r\n    function tokenURI(uint256 tokenId) external view override returns (string memory) {\r\n        require(_exists(tokenId), \"ERC721Metadata: URI query for nonexistent token\");\r\n\r\n        return string(abi.encodePacked(baseURI, tokenId.toString(), \".json\"));\r\n    }\r\n\r\n    function setBaseURI(string memory uri) external onlyOwner {\r\n        baseURI = uri;\r\n    }\r\n\r\n    /**\r\n     * @dev See {IERC721-approve}.\r\n     */\r\n    function approve(address to, uint256 tokenId) external override {\r\n        address owner = _owners[tokenId];\r\n        require(to != owner, \"ERC721: approval to current owner\");\r\n\r\n        require(\r\n            msg.sender == owner || isApprovedForAll(owner, msg.sender),\r\n            \"ERC721: approve caller is not owner nor approved for all\"\r\n        );\r\n\r\n        _approve(to, tokenId);\r\n    }\r\n\r\n    /**\r\n     * @dev See {IERC721-getApproved}.\r\n     */\r\n    function getApproved(uint256 tokenId) public view override returns (address) {\r\n        require(_exists(tokenId), \"ERC721: approved query for nonexistent token\");\r\n\r\n        return _tokenApprovals[tokenId];\r\n    }\r\n\r\n    /**\r\n     * @dev See {IERC721-setApprovalForAll}.\r\n     */\r\n    function setApprovalForAll(address operator, bool approved) external override {\r\n        _setApprovalForAll(msg.sender, operator, approved);\r\n    }\r\n\r\n    /**\r\n     * @dev See {IERC721-isApprovedForAll}.\r\n     */\r\n    function isApprovedForAll(address owner, address operator) public view override returns (bool) {\r\n        // Whitelist OpenSea proxy contract for easy trading.\r\n        ProxyRegistry proxyRegistry = ProxyRegistry(proxyRegistryAddress);\r\n        if (address(proxyRegistry.proxies(owner)) == operator) {\r\n            return true;\r\n        }\r\n\r\n        return _operatorApprovals[owner][operator];\r\n    }\r\n\r\n    function setOpenseaProxyRegistry(address addr) external onlyOwner {\r\n        proxyRegistryAddress = addr;\r\n    }\r\n\r\n    /**\r\n     * @dev See {IERC721-transferFrom}.\r\n     */\r\n    function transferFrom(\r\n        address from,\r\n        address to,\r\n        uint256 tokenId\r\n    ) external override {\r\n        //solhint-disable-next-line max-line-length\r\n        require(_isApprovedOrOwner(msg.sender, tokenId), \"ERC721: transfer caller is not owner nor approved\");\r\n\r\n        _transfer(from, to, tokenId);\r\n    }\r\n\r\n    /**\r\n     * @dev See {IERC721-safeTransferFrom}.\r\n     */\r\n    function safeTransferFrom(\r\n        address from,\r\n        address to,\r\n        uint256 tokenId\r\n    ) external override {\r\n        safeTransferFrom(from, to, tokenId, \"\");\r\n    }\r\n\r\n    /**\r\n     * @dev See {IERC721-safeTransferFrom}.\r\n     */\r\n    function safeTransferFrom(\r\n        address from,\r\n        address to,\r\n        uint256 tokenId,\r\n        bytes memory _data\r\n    ) public override {\r\n        require(_isApprovedOrOwner(msg.sender, tokenId), \"ERC721: transfer caller is not owner nor approved\");\r\n        _safeTransfer(from, to, tokenId, _data);\r\n    }\r\n\r\n    /**\r\n     * @dev Safely transfers `tokenId` token from `from` to `to`, checking first that contract recipients\r\n     * are aware of the ERC721 protocol to prevent tokens from being forever locked.\r\n     *\r\n     * `_data` is additional data, it has no specified format and it is sent in call to `to`.\r\n     *\r\n     * This internal function is equivalent to {safeTransferFrom}, and can be used to e.g.\r\n     * implement alternative mechanisms to perform token transfer, such as signature-based.\r\n     *\r\n     * Requirements:\r\n     *\r\n     * - `from` cannot be the zero address.\r\n     * - `to` cannot be the zero address.\r\n     * - `tokenId` token must exist and be owned by `from`.\r\n     * - If `to` refers to a smart contract, it must implement {IERC721Receiver-onERC721Received}, which is called upon a safe transfer.\r\n     *\r\n     * Emits a {Transfer} event.\r\n     */\r\n    function _safeTransfer(\r\n        address from,\r\n        address to,\r\n        uint256 tokenId,\r\n        bytes memory _data\r\n    ) internal virtual {\r\n        _transfer(from, to, tokenId);\r\n        require(_checkOnERC721Received(from, to, tokenId, _data), \"ERC721: transfer to non ERC721Receiver implementer\");\r\n    }\r\n\r\n    /**\r\n     * @dev Returns whether `tokenId` exists.\r\n     *\r\n     * Tokens can be managed by their owner or approved accounts via {approve} or {setApprovalForAll}.\r\n     *\r\n     * Tokens start existing when they are minted\r\n     */\r\n    function _exists(uint256 tokenId) internal view virtual returns (bool) {\r\n        return _owners[tokenId] != address(0);\r\n    }\r\n\r\n    /**\r\n     * @dev Returns whether `spender` is allowed to manage `tokenId`.\r\n     *\r\n     * Requirements:\r\n     *\r\n     * - `tokenId` must exist.\r\n     */\r\n    function _isApprovedOrOwner(address spender, uint256 tokenId) internal view virtual returns (bool) {\r\n        require(_exists(tokenId), \"ERC721: operator query for nonexistent token\");\r\n        address owner = _owners[tokenId];\r\n        return (spender == owner || getApproved(tokenId) == spender || isApprovedForAll(owner, spender));\r\n    }\r\n\r\n    /**\r\n     * @dev Mints `tokenId` and transfers it to `to`.\r\n     *\r\n     * WARNING: Usage of this method is discouraged, use {_safeMint} whenever possible\r\n     *\r\n     * Requirements:\r\n     *\r\n     * - `tokenId` must not exist.\r\n     * - `to` cannot be the zero address.\r\n     *\r\n     * Emits a {Transfer} event.\r\n     */\r\n    function _mint(uint256 amount, address to, uint tokenId) internal {\r\n\r\n        _balances[to] += amount;\r\n\r\n        for (uint i; i < amount; i++) {\r\n            tokenId++;\r\n\r\n            _owners[tokenId] = to;\r\n            emit Transfer(address(0), to, tokenId);\r\n        }\r\n\r\n        totalSupply += uint16(amount);\r\n\r\n        require(\r\n            _checkOnERC721Received(address(0), to, tokenId, \"\"),\r\n            \"ERC721: transfer to non ERC721Receiver implementer\"\r\n        ); // checking it once will make sure that the address can recieve NFTs\r\n    }\r\n\r\n    function _mint(address to, uint tokenId) internal {\r\n\r\n        _balances[to]++;\r\n        _owners[tokenId] = to;\r\n        emit Transfer(address(0), to, tokenId);\r\n\r\n        totalSupply++;\r\n        \r\n        require(\r\n            _checkOnERC721Received(address(0), to, tokenId, \"\"),\r\n            \"ERC721: transfer to non ERC721Receiver implementer\"\r\n        );\r\n    }\r\n\r\n    /**\r\n     * @dev Transfers `tokenId` from `from` to `to`.\r\n     *  As opposed to {transferFrom}, this imposes no restrictions on msg.sender.\r\n     *\r\n     * Requirements:\r\n     *\r\n     * - `to` cannot be the zero address.\r\n     * - `tokenId` token must be owned by `from`.\r\n     *\r\n     * Emits a {Transfer} event.\r\n     */\r\n    function _transfer(\r\n        address from,\r\n        address to,\r\n        uint256 tokenId\r\n    ) internal virtual {\r\n        require(_owners[tokenId] == from, \"ERC721: transfer from incorrect owner\");\r\n        require(to != address(0), \"ERC721: transfer to the zero address\");\r\n\r\n        // Clear approvals from the previous owner\r\n        _approve(address(0), tokenId);\r\n\r\n        _balances[from]--;\r\n        _balances[to]++;\r\n\r\n        _owners[tokenId] = to;\r\n\r\n        emit Transfer(from, to, tokenId);\r\n    }\r\n\r\n    /**\r\n     * @dev Approve `to` to operate on `tokenId`\r\n     *\r\n     * Emits a {Approval} event.\r\n     */\r\n    function _approve(address to, uint256 tokenId) internal virtual {\r\n        _tokenApprovals[tokenId] = to;\r\n        emit Approval(ERC721.ownerOf(tokenId), to, tokenId);\r\n    }\r\n\r\n    /**\r\n     * @dev Approve `operator` to operate on all of `owner` tokens\r\n     *\r\n     * Emits a {ApprovalForAll} event.\r\n     */\r\n    function _setApprovalForAll(\r\n        address owner,\r\n        address operator,\r\n        bool approved\r\n    ) internal virtual {\r\n        require(owner != operator, \"ERC721: approve to caller\");\r\n        _operatorApprovals[owner][operator] = approved;\r\n        emit ApprovalForAll(owner, operator, approved);\r\n    }\r\n\r\n    /**\r\n     * @dev Internal function to invoke {IERC721Receiver-onERC721Received} on a target address.\r\n     * The call is not executed if the target address is not a contract.\r\n     *\r\n     * @param from address representing the previous owner of the given token ID\r\n     * @param to target address that will receive the tokens\r\n     * @param tokenId uint256 ID of the token to be transferred\r\n     * @param _data bytes optional data to send along with the call\r\n     * @return bool whether the call correctly returned the expected magic value\r\n     */\r\n    function _checkOnERC721Received(\r\n        address from,\r\n        address to,\r\n        uint256 tokenId,\r\n        bytes memory _data\r\n    ) internal returns (bool) {\r\n        if (to.isContract()) {\r\n            try IERC721Receiver(to).onERC721Received(msg.sender, from, tokenId, _data) returns (bytes4 retval) {\r\n                return retval == IERC721Receiver.onERC721Received.selector;\r\n            } catch (bytes memory reason) {\r\n                if (reason.length == 0) {\r\n                    revert(\"ERC721: transfer to non ERC721Receiver implementer\");\r\n                } else {\r\n                    assembly {\r\n                        revert(add(32, reason), mload(reason))\r\n                    }\r\n                }\r\n            }\r\n        } else {\r\n            return true;\r\n        }\r\n    }\r\n\r\n}\r\n\r\ncontract OwnableDelegateProxy {}\r\n\r\ncontract ProxyRegistry {\r\n    mapping(address => OwnableDelegateProxy) public proxies;\r\n}\r\n\r\n\r\n// File: LO.sol\r\n\r\n\r\ncontract LO is Ownable, IERC2981, ERC721 {\r\n\r\n    bool private _onlyWhiteList;\r\n    bool private _mintingEnabled;\r\n\r\n    uint private EIP2981RoyaltyPercent;\r\n\r\n    mapping (address => uint8) public amountPreMinted;\r\n    mapping (address => uint8) public amountMinted;\r\n\r\n    constructor(\r\n        uint _royalty,\r\n        address _openseaProxyRegistry,\r\n        string memory _tempBaseURI\r\n    ) ERC721(_openseaProxyRegistry, _tempBaseURI) {\r\n        EIP2981RoyaltyPercent = _royalty;\r\n    }\r\n\r\n    function mintFromReserve(uint amount, address to) external onlyOwner {\r\n        uint tokenId = totalSupply;\r\n        require(amount + tokenId < 5556);\r\n        _mint(amount, to, tokenId);\r\n    }\r\n\r\n    function batchMintFromReserve(uint[] memory amount, address[] memory to) external onlyOwner {\r\n        uint length = amount.length;\r\n        require(length == to.length, \"array length missmatch\");\r\n\r\n        uint tokenId = totalSupply;\r\n        uint total;\r\n\r\n        uint cAmount;\r\n        address cTo;\r\n\r\n        for (uint i; i < length; i++) {\r\n\r\n            assembly {\r\n                cAmount := mload(add(add(amount, 0x20), mul(i, 0x20)))\r\n                cTo := mload(add(add(to, 0x20), mul(i, 0x20)))\r\n            }\r\n\r\n            require(!Address.isContract(cTo), \"Cannot mint to contracts!\");\r\n\r\n            _balances[cTo] += cAmount;\r\n\r\n            for (uint f; f < cAmount; f++) {\r\n                tokenId++;\r\n\r\n                _owners[tokenId] = cTo;\r\n                emit Transfer(address(0), cTo, tokenId);\r\n            }\r\n\r\n            total += cAmount;\r\n        }\r\n\r\n        require(tokenId < 5556, \"Exceeds reserve!\");\r\n\r\n        totalSupply += uint16(total);\r\n    }\r\n\r\n    function mint(uint256 amount) external payable {\r\n        require(_mintingEnabled, \"Minting is not enabled!\");\r\n        uint tokenId = totalSupply;\r\n        require(amount + tokenId < 5556, \"Request exceeds max supply!\");\r\n        require(amount + amountMinted[msg.sender] < 3 && amount != 0, \"Request exceeds max per wallet!\");\r\n        require(msg.value == amount * 9e16, \"ETH Amount is not correct!\");\r\n\r\n        amountMinted[msg.sender] += uint8(amount);\r\n        _mint(amount, msg.sender, tokenId);\r\n    }\r\n\r\n    function famMint(bytes calldata sig) external payable {\r\n        require(_onlyWhiteList, \"Minting is not enabled!\");\r\n        require(_checkFamSig(msg.sender, sig), \"User not whitelisted!\");\r\n        uint tokenId = totalSupply + 1;\r\n        require(tokenId < 5556, \"Request exceeds max supply!\");\r\n        require(amountPreMinted[msg.sender] == 0, \"Request exceeds max per wallet!\");\r\n        require(msg.value == 9e16, \"ETH Amount is not correct!\");\r\n\r\n        amountPreMinted[msg.sender]++;\r\n        _mint(msg.sender, tokenId);\r\n    }\r\n\r\n    function ogMint(bytes calldata sig, uint256 amount) external payable {\r\n        require(_onlyWhiteList, \"Minting is not enabled!\");\r\n        require(_checkOgSig(msg.sender, sig), \"User not whitelisted!\");\r\n        uint tokenId = totalSupply;\r\n        require(amount + tokenId < 5556, \"Request exceeds max supply!\");\r\n        require(amount + amountPreMinted[msg.sender] < 3 && amount != 0, \"Request exceeds max per wallet!\");\r\n        require(msg.value == amount * 9e16, \"ETH Amount is not correct!\");\r\n\r\n        amountPreMinted[msg.sender] += uint8(amount);\r\n        _mint(amount, msg.sender, tokenId);\r\n    }\r\n\r\n    function _checkOgSig(address _wallet, bytes memory _signature) private view returns(bool) {\r\n        return ECDSA.recover(\r\n            ECDSA.toEthSignedMessageHash(keccak256(abi.encodePacked(_wallet, \"OG\"))),\r\n            _signature\r\n        ) == owner();\r\n    }\r\n\r\n    function _checkFamSig(address _wallet, bytes memory _signature) private view returns(bool) {\r\n        return ECDSA.recover(\r\n            ECDSA.toEthSignedMessageHash(keccak256(abi.encodePacked(_wallet, \"FAM\"))),\r\n            _signature\r\n        ) == owner();\r\n    }\r\n\r\n    function getOgMsg(address _wallet) external pure returns(bytes32) {\r\n        return keccak256(abi.encodePacked(_wallet, \"OG\"));\r\n    }\r\n\r\n    function getFamMsg(address _wallet) external pure returns(bytes32) {\r\n        return keccak256(abi.encodePacked(_wallet, \"FAM\"));\r\n    }\r\n\r\n    function getSalesStatus() external view returns(bool onlyWhitelist, bool mintingEnabled) {\r\n        onlyWhitelist = _onlyWhiteList;\r\n        mintingEnabled = _mintingEnabled;\r\n    }\r\n\r\n    /**\r\n     * @notice returns royalty info for EIP2981 supporting marketplaces\r\n     * @dev Called with the sale price to determine how much royalty is owed and to whom.\r\n     * @param tokenId - the NFT asset queried for royalty information\r\n     * @param salePrice - the sale price of the NFT asset specified by `tokenId`\r\n     * @return receiver - address of who should be sent the royalty payment\r\n     * @return royaltyAmount - the royalty payment amount for `salePrice`\r\n     */\r\n    function royaltyInfo(uint tokenId, uint salePrice) external view override returns(address receiver, uint256 royaltyAmount) {\r\n        require(_exists(tokenId), \"Royality querry for non-existant token!\");\r\n        return(owner(), salePrice * EIP2981RoyaltyPercent / 10000);\r\n    }\r\n\r\n    /**\r\n     * @notice sets the royalty percentage for EIP2981 supporting marketplaces\r\n     * @dev percentage is in bassis points (parts per 10,000).\r\n            Example: 5% = 500, 0.5% = 50\r\n     * @param amount - percent amount\r\n     */\r\n    function setRoyaltyPercent(uint256 amount) external onlyOwner {\r\n        EIP2981RoyaltyPercent = amount;\r\n    }\r\n\r\n    /**\r\n     * @dev See {IERC165-supportsInterface}.\r\n     */\r\n    function supportsInterface(bytes4 interfaceId) public view virtual override(IERC165, ERC721) returns (bool) {\r\n        return\r\n            interfaceId == type(IERC2981).interfaceId ||\r\n            super.supportsInterface(interfaceId);\r\n    }\r\n\r\n    function withdraw() onlyOwner external {\r\n        uint bal = address(this).balance;\r\n        bool success;\r\n        (success, ) = payable(msg.sender).call{value: (bal * 92) / 100, gas: 3000}(\"\");\r\n        require(success, \"Transfer to contract owner failed!\");\r\n        (success, ) = payable(0xFab795b3e736C4323103a3ADAa901cc5a43646fE).call{value: ((bal * 8) / 100), gas: 3000}(\"\");\r\n        require(success, \"Transfer to core devs failed!\");\r\n        \r\n    }\r\n\r\n    /**\r\n     * @notice toggles pre sale\r\n     * @dev enables the pre sale functions. NEVER USE THIS AFTER ENABLING THE PUBLIC SALE FUNCTIONS UNLESS ITS NECESSARY\r\n     */\r\n    function togglePresale() external onlyOwner {\r\n        _onlyWhiteList = !_onlyWhiteList;\r\n    }\r\n\r\n    /**\r\n     * @notice toggles the public sale\r\n     * @dev enables/disables public sale functions and disables pre sale functions\r\n     */\r\n    function togglePublicSale() external onlyOwner {\r\n        _onlyWhiteList = false;\r\n        _mintingEnabled = !_mintingEnabled;\r\n    }\r\n\r\n    function tokensOfOwner(address owner) external view returns(uint[] memory) {\r\n        uint[] memory tokens = new uint[](_balances[owner]);\r\n        uint y = totalSupply + 1;\r\n        uint x;\r\n\r\n        for (uint i = 1; i < y; i++) {\r\n            if (ownerOf(i) == owner) {\r\n                tokens[x] = i;\r\n                x++;\r\n            }\r\n        }\r\n\r\n        return tokens;\r\n    }\r\n}",
  "sourcePath": "D:\\Code\\L.O-contracts\\contracts\\LO.sol",
  "compiler": {
    "name": "solc",
    "version": "0.8.7+commit.e28d00a7.Emscripten.clang"
  },
  "schemaVersion": "3.4.5",
  "updatedAt": "2022-05-02T18:59:40.392Z",
  "devdoc": {
    "details": "Implementation of https://eips.ethereum.org/EIPS/eip-721[ERC721] Non-Fungible Token Standard, including the Metadata extension Made for efficiancy!",
    "kind": "dev",
    "methods": {
      "approve(address,uint256)": {
        "details": "See {IERC721-approve}."
      },
      "balanceOf(address)": {
        "details": "See {IERC721-balanceOf}."
      },
      "getApproved(uint256)": {
        "details": "See {IERC721-getApproved}."
      },
      "isApprovedForAll(address,address)": {
        "details": "See {IERC721-isApprovedForAll}."
      },
      "name()": {
        "details": "See {IERC721Metadata-name}."
      },
      "owner()": {
        "details": "Returns the address of the current owner."
      },
      "ownerOf(uint256)": {
        "details": "See {IERC721-ownerOf}."
      },
      "renounceOwnership()": {
        "details": "Leaves the contract without owner. It will not be possible to call `onlyOwner` functions anymore. Can only be called by the current owner. NOTE: Renouncing ownership will leave the contract without an owner, thereby removing any functionality that is only available to the owner."
      },
      "safeTransferFrom(address,address,uint256)": {
        "details": "See {IERC721-safeTransferFrom}."
      },
      "safeTransferFrom(address,address,uint256,bytes)": {
        "details": "See {IERC721-safeTransferFrom}."
      },
      "setApprovalForAll(address,bool)": {
        "details": "See {IERC721-setApprovalForAll}."
      },
      "supportsInterface(bytes4)": {
        "details": "See {IERC165-supportsInterface}."
      },
      "symbol()": {
        "details": "See {IERC721Metadata-symbol}."
      },
      "tokenURI(uint256)": {
        "details": "See {IERC721Metadata-tokenURI}."
      },
      "transferFrom(address,address,uint256)": {
        "details": "See {IERC721-transferFrom}."
      },
      "transferOwnership(address)": {
        "details": "Transfers ownership of the contract to a new account (`newOwner`). Can only be called by the current owner."
      }
    },
    "version": 1
  },
  "userdoc": {
    "kind": "user",
    "methods": {},
    "version": 1
  }
}