{
  "contractName": "LO",
  "abi": [
    {
      "inputs": [
        {
          "internalType": "uint256",
          "name": "_royalty",
          "type": "uint256"
        },
        {
          "internalType": "address",
          "name": "_openseaProxyRegistry",
          "type": "address"
        },
        {
          "internalType": "string",
          "name": "_tempBaseURI",
          "type": "string"
        }
      ],
      "stateMutability": "nonpayable",
      "type": "constructor"
    },
    {
      "anonymous": false,
      "inputs": [
        {
          "indexed": true,
          "internalType": "address",
          "name": "_owner",
          "type": "address"
        },
        {
          "indexed": true,
          "internalType": "address",
          "name": "_approved",
          "type": "address"
        },
        {
          "indexed": true,
          "internalType": "uint256",
          "name": "_tokenId",
          "type": "uint256"
        }
      ],
      "name": "Approval",
      "type": "event"
    },
    {
      "anonymous": false,
      "inputs": [
        {
          "indexed": true,
          "internalType": "address",
          "name": "_owner",
          "type": "address"
        },
        {
          "indexed": true,
          "internalType": "address",
          "name": "_operator",
          "type": "address"
        },
        {
          "indexed": false,
          "internalType": "bool",
          "name": "_approved",
          "type": "bool"
        }
      ],
      "name": "ApprovalForAll",
      "type": "event"
    },
    {
      "anonymous": false,
      "inputs": [
        {
          "indexed": true,
          "internalType": "address",
          "name": "previousOwner",
          "type": "address"
        },
        {
          "indexed": true,
          "internalType": "address",
          "name": "newOwner",
          "type": "address"
        }
      ],
      "name": "OwnershipTransferred",
      "type": "event"
    },
    {
      "anonymous": false,
      "inputs": [
        {
          "indexed": true,
          "internalType": "address",
          "name": "_from",
          "type": "address"
        },
        {
          "indexed": true,
          "internalType": "address",
          "name": "_to",
          "type": "address"
        },
        {
          "indexed": true,
          "internalType": "uint256",
          "name": "_tokenId",
          "type": "uint256"
        }
      ],
      "name": "Transfer",
      "type": "event"
    },
    {
      "inputs": [
        {
          "internalType": "address",
          "name": "",
          "type": "address"
        }
      ],
      "name": "amountMinted",
      "outputs": [
        {
          "internalType": "uint8",
          "name": "",
          "type": "uint8"
        }
      ],
      "stateMutability": "view",
      "type": "function"
    },
    {
      "inputs": [
        {
          "internalType": "address",
          "name": "",
          "type": "address"
        }
      ],
      "name": "amountPreMinted",
      "outputs": [
        {
          "internalType": "uint8",
          "name": "",
          "type": "uint8"
        }
      ],
      "stateMutability": "view",
      "type": "function"
    },
    {
      "inputs": [
        {
          "internalType": "address",
          "name": "to",
          "type": "address"
        },
        {
          "internalType": "uint256",
          "name": "tokenId",
          "type": "uint256"
        }
      ],
      "name": "approve",
      "outputs": [],
      "stateMutability": "nonpayable",
      "type": "function"
    },
    {
      "inputs": [
        {
          "internalType": "address",
          "name": "owner",
          "type": "address"
        }
      ],
      "name": "balanceOf",
      "outputs": [
        {
          "internalType": "uint256",
          "name": "",
          "type": "uint256"
        }
      ],
      "stateMutability": "view",
      "type": "function"
    },
    {
      "inputs": [],
      "name": "baseURI",
      "outputs": [
        {
          "internalType": "string",
          "name": "",
          "type": "string"
        }
      ],
      "stateMutability": "view",
      "type": "function"
    },
    {
      "inputs": [
        {
          "internalType": "uint256",
          "name": "tokenId",
          "type": "uint256"
        }
      ],
      "name": "getApproved",
      "outputs": [
        {
          "internalType": "address",
          "name": "",
          "type": "address"
        }
      ],
      "stateMutability": "view",
      "type": "function"
    },
    {
      "inputs": [
        {
          "internalType": "address",
          "name": "owner",
          "type": "address"
        },
        {
          "internalType": "address",
          "name": "operator",
          "type": "address"
        }
      ],
      "name": "isApprovedForAll",
      "outputs": [
        {
          "internalType": "bool",
          "name": "",
          "type": "bool"
        }
      ],
      "stateMutability": "view",
      "type": "function"
    },
    {
      "inputs": [],
      "name": "name",
      "outputs": [
        {
          "internalType": "string",
          "name": "",
          "type": "string"
        }
      ],
      "stateMutability": "pure",
      "type": "function"
    },
    {
      "inputs": [],
      "name": "owner",
      "outputs": [
        {
          "internalType": "address",
          "name": "",
          "type": "address"
        }
      ],
      "stateMutability": "view",
      "type": "function"
    },
    {
      "inputs": [
        {
          "internalType": "uint256",
          "name": "tokenId",
          "type": "uint256"
        }
      ],
      "name": "ownerOf",
      "outputs": [
        {
          "internalType": "address",
          "name": "",
          "type": "address"
        }
      ],
      "stateMutability": "view",
      "type": "function"
    },
    {
      "inputs": [],
      "name": "proxyRegistryAddress",
      "outputs": [
        {
          "internalType": "address",
          "name": "",
          "type": "address"
        }
      ],
      "stateMutability": "view",
      "type": "function"
    },
    {
      "inputs": [],
      "name": "renounceOwnership",
      "outputs": [],
      "stateMutability": "nonpayable",
      "type": "function"
    },
    {
      "inputs": [
        {
          "internalType": "address",
          "name": "from",
          "type": "address"
        },
        {
          "internalType": "address",
          "name": "to",
          "type": "address"
        },
        {
          "internalType": "uint256",
          "name": "tokenId",
          "type": "uint256"
        }
      ],
      "name": "safeTransferFrom",
      "outputs": [],
      "stateMutability": "nonpayable",
      "type": "function"
    },
    {
      "inputs": [
        {
          "internalType": "address",
          "name": "from",
          "type": "address"
        },
        {
          "internalType": "address",
          "name": "to",
          "type": "address"
        },
        {
          "internalType": "uint256",
          "name": "tokenId",
          "type": "uint256"
        },
        {
          "internalType": "bytes",
          "name": "_data",
          "type": "bytes"
        }
      ],
      "name": "safeTransferFrom",
      "outputs": [],
      "stateMutability": "nonpayable",
      "type": "function"
    },
    {
      "inputs": [
        {
          "internalType": "address",
          "name": "operator",
          "type": "address"
        },
        {
          "internalType": "bool",
          "name": "approved",
          "type": "bool"
        }
      ],
      "name": "setApprovalForAll",
      "outputs": [],
      "stateMutability": "nonpayable",
      "type": "function"
    },
    {
      "inputs": [
        {
          "internalType": "string",
          "name": "uri",
          "type": "string"
        }
      ],
      "name": "setBaseURI",
      "outputs": [],
      "stateMutability": "nonpayable",
      "type": "function"
    },
    {
      "inputs": [
        {
          "internalType": "address",
          "name": "addr",
          "type": "address"
        }
      ],
      "name": "setOpenseaProxyRegistry",
      "outputs": [],
      "stateMutability": "nonpayable",
      "type": "function"
    },
    {
      "inputs": [],
      "name": "symbol",
      "outputs": [
        {
          "internalType": "string",
          "name": "",
          "type": "string"
        }
      ],
      "stateMutability": "pure",
      "type": "function"
    },
    {
      "inputs": [
        {
          "internalType": "uint256",
          "name": "tokenId",
          "type": "uint256"
        }
      ],
      "name": "tokenURI",
      "outputs": [
        {
          "internalType": "string",
          "name": "",
          "type": "string"
        }
      ],
      "stateMutability": "view",
      "type": "function"
    },
    {
      "inputs": [],
      "name": "totalSupply",
      "outputs": [
        {
          "internalType": "uint16",
          "name": "",
          "type": "uint16"
        }
      ],
      "stateMutability": "view",
      "type": "function"
    },
    {
      "inputs": [
        {
          "internalType": "address",
          "name": "from",
          "type": "address"
        },
        {
          "internalType": "address",
          "name": "to",
          "type": "address"
        },
        {
          "internalType": "uint256",
          "name": "tokenId",
          "type": "uint256"
        }
      ],
      "name": "transferFrom",
      "outputs": [],
      "stateMutability": "nonpayable",
      "type": "function"
    },
    {
      "inputs": [
        {
          "internalType": "address",
          "name": "newOwner",
          "type": "address"
        }
      ],
      "name": "transferOwnership",
      "outputs": [],
      "stateMutability": "nonpayable",
      "type": "function"
    },
    {
      "inputs": [
        {
          "internalType": "uint256",
          "name": "amount",
          "type": "uint256"
        },
        {
          "internalType": "address",
          "name": "to",
          "type": "address"
        }
      ],
      "name": "mintFromReserve",
      "outputs": [],
      "stateMutability": "nonpayable",
      "type": "function"
    },
    {
      "inputs": [
        {
          "internalType": "uint256[]",
          "name": "amount",
          "type": "uint256[]"
        },
        {
          "internalType": "address[]",
          "name": "to",
          "type": "address[]"
        }
      ],
      "name": "batchMintFromReserve",
      "outputs": [],
      "stateMutability": "nonpayable",
      "type": "function"
    },
    {
      "inputs": [
        {
          "internalType": "uint256",
          "name": "amount",
          "type": "uint256"
        }
      ],
      "name": "mint",
      "outputs": [],
      "stateMutability": "payable",
      "type": "function"
    },
    {
      "inputs": [
        {
          "internalType": "bytes",
          "name": "sig",
          "type": "bytes"
        }
      ],
      "name": "famMint",
      "outputs": [],
      "stateMutability": "payable",
      "type": "function"
    },
    {
      "inputs": [
        {
          "internalType": "bytes",
          "name": "sig",
          "type": "bytes"
        },
        {
          "internalType": "uint256",
          "name": "amount",
          "type": "uint256"
        }
      ],
      "name": "ogMint",
      "outputs": [],
      "stateMutability": "payable",
      "type": "function"
    },
    {
      "inputs": [
        {
          "internalType": "address",
          "name": "_wallet",
          "type": "address"
        }
      ],
      "name": "getOgMsg",
      "outputs": [
        {
          "internalType": "bytes32",
          "name": "",
          "type": "bytes32"
        }
      ],
      "stateMutability": "pure",
      "type": "function"
    },
    {
      "inputs": [
        {
          "internalType": "address",
          "name": "_wallet",
          "type": "address"
        }
      ],
      "name": "getFamMsg",
      "outputs": [
        {
          "internalType": "bytes32",
          "name": "",
          "type": "bytes32"
        }
      ],
      "stateMutability": "pure",
      "type": "function"
    },
    {
      "inputs": [],
      "name": "getSalesStatus",
      "outputs": [
        {
          "internalType": "bool",
          "name": "onlyWhitelist",
          "type": "bool"
        },
        {
          "internalType": "bool",
          "name": "mintingEnabled",
          "type": "bool"
        }
      ],
      "stateMutability": "view",
      "type": "function"
    },
    {
      "inputs": [
        {
          "internalType": "uint256",
          "name": "tokenId",
          "type": "uint256"
        },
        {
          "internalType": "uint256",
          "name": "salePrice",
          "type": "uint256"
        }
      ],
      "name": "royaltyInfo",
      "outputs": [
        {
          "internalType": "address",
          "name": "receiver",
          "type": "address"
        },
        {
          "internalType": "uint256",
          "name": "royaltyAmount",
          "type": "uint256"
        }
      ],
      "stateMutability": "view",
      "type": "function"
    },
    {
      "inputs": [
        {
          "internalType": "uint256",
          "name": "amount",
          "type": "uint256"
        }
      ],
      "name": "setRoyaltyPercent",
      "outputs": [],
      "stateMutability": "nonpayable",
      "type": "function"
    },
    {
      "inputs": [
        {
          "internalType": "bytes4",
          "name": "interfaceId",
          "type": "bytes4"
        }
      ],
      "name": "supportsInterface",
      "outputs": [
        {
          "internalType": "bool",
          "name": "",
          "type": "bool"
        }
      ],
      "stateMutability": "view",
      "type": "function"
    },
    {
      "inputs": [],
      "name": "withdraw",
      "outputs": [],
      "stateMutability": "nonpayable",
      "type": "function"
    },
    {
      "inputs": [],
      "name": "togglePresale",
      "outputs": [],
      "stateMutability": "nonpayable",
      "type": "function"
    },
    {
      "inputs": [],
      "name": "togglePublicSale",
      "outputs": [],
      "stateMutability": "nonpayable",
      "type": "function"
    },
    {
      "inputs": [
        {
          "internalType": "address",
          "name": "owner",
          "type": "address"
        }
      ],
      "name": "tokensOfOwner",
      "outputs": [
        {
          "internalType": "uint256[]",
          "name": "",
          "type": "uint256[]"
        }
      ],
      "stateMutability": "view",
      "type": "function"
    }
  ],
  "bytecode": "0x60806040523480156200001157600080fd5b5060405162006291380380620062918339818101604052810190620000379190620002d6565b81816200004a33620000b660201b60201c565b81600160006101000a81548173ffffffffffffffffffffffffffffffffffffffff021916908373ffffffffffffffffffffffffffffffffffffffff1602179055508060029080519060200190620000a39291906200017a565b5050508260088190555050505062000547565b60008060009054906101000a900473ffffffffffffffffffffffffffffffffffffffff169050816000806101000a81548173ffffffffffffffffffffffffffffffffffffffff021916908373ffffffffffffffffffffffffffffffffffffffff1602179055508173ffffffffffffffffffffffffffffffffffffffff168173ffffffffffffffffffffffffffffffffffffffff167f8be0079c531659141344cd1fd0a4f28419497f9722a3daafe3b4186f6b6457e060405160405180910390a35050565b828054620001889062000424565b90600052602060002090601f016020900481019282620001ac5760008555620001f8565b82601f10620001c757805160ff1916838001178555620001f8565b82800160010185558215620001f8579182015b82811115620001f7578251825591602001919060010190620001da565b5b5090506200020791906200020b565b5090565b5b80821115620002265760008160009055506001016200020c565b5090565b6000620002416200023b846200037a565b62000351565b90508281526020810184848401111562000260576200025f620004f3565b5b6200026d848285620003ee565b509392505050565b600081519050620002868162000513565b92915050565b600082601f830112620002a457620002a3620004ee565b5b8151620002b68482602086016200022a565b91505092915050565b600081519050620002d0816200052d565b92915050565b600080600060608486031215620002f257620002f1620004fd565b5b60006200030286828701620002bf565b9350506020620003158682870162000275565b925050604084015167ffffffffffffffff811115620003395762000338620004f8565b5b62000347868287016200028c565b9150509250925092565b60006200035d62000370565b90506200036b82826200045a565b919050565b6000604051905090565b600067ffffffffffffffff821115620003985762000397620004bf565b5b620003a38262000502565b9050602081019050919050565b6000620003bd82620003c4565b9050919050565b600073ffffffffffffffffffffffffffffffffffffffff82169050919050565b6000819050919050565b60005b838110156200040e578082015181840152602081019050620003f1565b838111156200041e576000848401525b50505050565b600060028204905060018216806200043d57607f821691505b6020821081141562000454576200045362000490565b5b50919050565b620004658262000502565b810181811067ffffffffffffffff82111715620004875762000486620004bf565b5b80604052505050565b7f4e487b7100000000000000000000000000000000000000000000000000000000600052602260045260246000fd5b7f4e487b7100000000000000000000000000000000000000000000000000000000600052604160045260246000fd5b600080fd5b600080fd5b600080fd5b600080fd5b6000601f19601f8301169050919050565b6200051e81620003b0565b81146200052a57600080fd5b50565b6200053881620003e4565b81146200054457600080fd5b50565b615d3a80620005576000396000f3fe60806040526004361061021a5760003560e01c8063715018a611610123578063adb03e4f116100ab578063c87b56dd1161006f578063c87b56dd146107b8578063cd7c0326146107f5578063e222c7f914610820578063e985e9c514610837578063f2fde38b146108745761021a565b8063adb03e4f146106c3578063b30760dc146106ec578063b88d4fde14610729578063bd2f524414610752578063c5fcf2341461077b5761021a565b806395d89b41116100f257806395d89b4114610601578063984f39131461062c5780639a4fc64014610655578063a0712d681461067e578063a22cb4651461069a5761021a565b8063715018a6146105565780638462151c1461056d5780638b2c92ab146105aa5780638da5cb5b146105d65761021a565b806335fb7469116101a657806355f804b31161017557806355f804b31461046c578063607019b9146104955780636352211e146104b15780636c0360eb146104ee57806370a08231146105195761021a565b806335fb7469146103d35780633ccfd60b146103ef57806342842e0e14610406578063438a67e71461042f5761021a565b806318160ddd116101ed57806318160ddd146102ed57806320d45c4c1461031857806323b872dd146103555780632a55205a1461037e57806334393743146103bc5761021a565b806301ffc9a71461021f57806306fdde031461025c578063081812fc14610287578063095ea7b3146102c4575b600080fd5b34801561022b57600080fd5b5061024660048036038101906102419190613efb565b61089d565b6040516102539190614962565b60405180910390f35b34801561026857600080fd5b50610271610917565b60405161027e9190614a06565b60405180910390f35b34801561029357600080fd5b506102ae60048036038101906102a99190614078565b610954565b6040516102bb91906148b0565b60405180910390f35b3480156102d057600080fd5b506102eb60048036038101906102e69190613e43565b6109d9565b005b3480156102f957600080fd5b50610302610b0e565b60405161030f9190614dc8565b60405180910390f35b34801561032457600080fd5b5061033f600480360381019061033a9190613cc0565b610b22565b60405161034c9190614dfe565b60405180910390f35b34801561036157600080fd5b5061037c60048036038101906103779190613d2d565b610b42565b005b34801561038a57600080fd5b506103a560048036038101906103a091906140e5565b610b9b565b6040516103b3929190614917565b60405180910390f35b3480156103c857600080fd5b506103d1610c14565b005b6103ed60048036038101906103e89190613f55565b610cb5565b005b3480156103fb57600080fd5b50610404610f5a565b005b34801561041257600080fd5b5061042d60048036038101906104289190613d2d565b611180565b005b34801561043b57600080fd5b5061045660048036038101906104519190613cc0565b6111a0565b6040516104639190614dfe565b60405180910390f35b34801561047857600080fd5b50610493600480360381019061048e919061402f565b6111c0565b005b6104af60048036038101906104aa9190613fa2565b61124f565b005b3480156104bd57600080fd5b506104d860048036038101906104d39190614078565b611515565b6040516104e591906148b0565b60405180910390f35b3480156104fa57600080fd5b506105036115c7565b6040516105109190614a06565b60405180910390f35b34801561052557600080fd5b50610540600480360381019061053b9190613cc0565b611655565b60405161054d9190614de3565b60405180910390f35b34801561056257600080fd5b5061056b61170d565b005b34801561057957600080fd5b50610594600480360381019061058f9190613cc0565b61178e565b6040516105a19190614940565b60405180910390f35b3480156105b657600080fd5b506105bf6118db565b6040516105cd92919061497d565b60405180910390f35b3480156105e257600080fd5b506105eb611906565b6040516105f891906148b0565b60405180910390f35b34801561060d57600080fd5b5061061661192f565b6040516106239190614a06565b60405180910390f35b34801561063857600080fd5b50610653600480360381019061064e9190613e83565b61196c565b005b34801561066157600080fd5b5061067c60048036038101906106779190614078565b611c8b565b005b61069860048036038101906106939190614078565b611d0a565b005b3480156106a657600080fd5b506106c160048036038101906106bc9190613e03565b611f41565b005b3480156106cf57600080fd5b506106ea60048036038101906106e591906140a5565b611f50565b005b3480156106f857600080fd5b50610713600480360381019061070e9190613cc0565b612006565b60405161072091906149a6565b60405180910390f35b34801561073557600080fd5b50610750600480360381019061074b9190613d80565b612036565b005b34801561075e57600080fd5b5061077960048036038101906107749190613cc0565b612091565b005b34801561078757600080fd5b506107a2600480360381019061079d9190613cc0565b61214a565b6040516107af91906149a6565b60405180910390f35b3480156107c457600080fd5b506107df60048036038101906107da9190614078565b61217a565b6040516107ec9190614a06565b60405180910390f35b34801561080157600080fd5b5061080a6121f6565b60405161081791906148b0565b60405180910390f35b34801561082c57600080fd5b5061083561221c565b005b34801561084357600080fd5b5061085e60048036038101906108599190613ced565b6122d8565b60405161086b9190614962565b60405180910390f35b34801561088057600080fd5b5061089b60048036038101906108969190613cc0565b61245a565b005b60007f2a55205a000000000000000000000000000000000000000000000000000000007bffffffffffffffffffffffffffffffffffffffffffffffffffffffff1916827bffffffffffffffffffffffffffffffffffffffffffffffffffffffff19161480610910575061090f8261254b565b5b9050919050565b60606040518060400160405280600e81526020017f4c6f6669204f726967696e616c73000000000000000000000000000000000000815250905090565b600061095f8261262d565b61099e576040517f08c379a000000000000000000000000000000000000000000000000000000000815260040161099590614cc8565b60405180910390fd5b6005600083815260200190815260200160002060009054906101000a900473ffffffffffffffffffffffffffffffffffffffff169050919050565b60006003600083815260200190815260200160002060009054906101000a900473ffffffffffffffffffffffffffffffffffffffff1690508073ffffffffffffffffffffffffffffffffffffffff168373ffffffffffffffffffffffffffffffffffffffff161415610a80576040517f08c379a0000000000000000000000000000000000000000000000000000000008152600401610a7790614d28565b60405180910390fd5b8073ffffffffffffffffffffffffffffffffffffffff163373ffffffffffffffffffffffffffffffffffffffff161480610ac05750610abf81336122d8565b5b610aff576040517f08c379a0000000000000000000000000000000000000000000000000000000008152600401610af690614c08565b60405180910390fd5b610b098383612699565b505050565b600060149054906101000a900461ffff1681565b60096020528060005260406000206000915054906101000a900460ff1681565b610b4c3382612752565b610b8b576040517f08c379a0000000000000000000000000000000000000000000000000000000008152600401610b8290614d68565b60405180910390fd5b610b9683838361285b565b505050565b600080610ba78461262d565b610be6576040517f08c379a0000000000000000000000000000000000000000000000000000000008152600401610bdd90614ca8565b60405180910390fd5b610bee611906565b61271060085485610bff919061508a565b610c099190615059565b915091509250929050565b3373ffffffffffffffffffffffffffffffffffffffff16610c33611906565b73ffffffffffffffffffffffffffffffffffffffff1614610c89576040517f08c379a0000000000000000000000000000000000000000000000000000000008152600401610c8090614ce8565b60405180910390fd5b600760009054906101000a900460ff1615600760006101000a81548160ff021916908315150217905550565b600760009054906101000a900460ff16610d04576040517f08c379a0000000000000000000000000000000000000000000000000000000008152600401610cfb90614b68565b60405180910390fd5b610d523383838080601f016020809104026020016040519081016040528093929190818152602001838380828437600081840152601f19601f82011690508083019250505050505050612ad3565b610d91576040517f08c379a0000000000000000000000000000000000000000000000000000000008152600401610d8890614d88565b60405180910390fd5b60006001600060149054906101000a900461ffff16610db09190614f94565b61ffff1690506115b48110610dfa576040517f08c379a0000000000000000000000000000000000000000000000000000000008152600401610df190614da8565b60405180910390fd5b6000600960003373ffffffffffffffffffffffffffffffffffffffff1673ffffffffffffffffffffffffffffffffffffffff16815260200190815260200160002060009054906101000a900460ff1660ff1614610e8c576040517f08c379a0000000000000000000000000000000000000000000000000000000008152600401610e8390614be8565b60405180910390fd5b67013fbe85edc900003414610ed6576040517f08c379a0000000000000000000000000000000000000000000000000000000008152600401610ecd90614b88565b60405180910390fd5b600960003373ffffffffffffffffffffffffffffffffffffffff1673ffffffffffffffffffffffffffffffffffffffff168152602001908152602001600020600081819054906101000a900460ff1680929190610f3290615306565b91906101000a81548160ff021916908360ff16021790555050610f553382612b4a565b505050565b3373ffffffffffffffffffffffffffffffffffffffff16610f79611906565b73ffffffffffffffffffffffffffffffffffffffff1614610fcf576040517f08c379a0000000000000000000000000000000000000000000000000000000008152600401610fc690614ce8565b60405180910390fd5b600047905060003373ffffffffffffffffffffffffffffffffffffffff166064605c84610ffc919061508a565b6110069190615059565b610bb8906040516110169061489b565b600060405180830381858888f193505050503d8060008114611054576040519150601f19603f3d011682016040523d82523d6000602084013e611059565b606091505b5050809150508061109f576040517f08c379a000000000000000000000000000000000000000000000000000000000815260040161109690614ae8565b60405180910390fd5b73fab795b3e736c4323103a3adaa901cc5a43646fe73ffffffffffffffffffffffffffffffffffffffff1660646008846110d9919061508a565b6110e39190615059565b610bb8906040516110f39061489b565b600060405180830381858888f193505050503d8060008114611131576040519150601f19603f3d011682016040523d82523d6000602084013e611136565b606091505b5050809150508061117c576040517f08c379a000000000000000000000000000000000000000000000000000000000815260040161117390614b48565b60405180910390fd5b5050565b61119b83838360405180602001604052806000815250612036565b505050565b600a6020528060005260406000206000915054906101000a900460ff1681565b3373ffffffffffffffffffffffffffffffffffffffff166111df611906565b73ffffffffffffffffffffffffffffffffffffffff1614611235576040517f08c379a000000000000000000000000000000000000000000000000000000000815260040161122c90614ce8565b60405180910390fd5b806002908051906020019061124b92919061392d565b5050565b600760009054906101000a900460ff1661129e576040517f08c379a000000000000000000000000000000000000000000000000000000000815260040161129590614b68565b60405180910390fd5b6112ec3384848080601f016020809104026020016040519081016040528093929190818152602001838380828437600081840152601f19601f82011690508083019250505050505050612ce7565b61132b576040517f08c379a000000000000000000000000000000000000000000000000000000000815260040161132290614d88565b60405180910390fd5b60008060149054906101000a900461ffff1661ffff1690506115b481836113529190614fcc565b10611392576040517f08c379a000000000000000000000000000000000000000000000000000000000815260040161138990614da8565b60405180910390fd5b6003600960003373ffffffffffffffffffffffffffffffffffffffff1673ffffffffffffffffffffffffffffffffffffffff16815260200190815260200160002060009054906101000a900460ff1660ff16836113ef9190614fcc565b1080156113fd575060008214155b61143c576040517f08c379a000000000000000000000000000000000000000000000000000000000815260040161143390614be8565b60405180910390fd5b67013fbe85edc9000082611450919061508a565b3414611491576040517f08c379a000000000000000000000000000000000000000000000000000000000815260040161148890614b88565b60405180910390fd5b81600960003373ffffffffffffffffffffffffffffffffffffffff1673ffffffffffffffffffffffffffffffffffffffff16815260200190815260200160002060008282829054906101000a900460ff166114ec9190615022565b92506101000a81548160ff021916908360ff16021790555061150f823383612d5e565b50505050565b6000806003600084815260200190815260200160002060009054906101000a900473ffffffffffffffffffffffffffffffffffffffff169050600073ffffffffffffffffffffffffffffffffffffffff168173ffffffffffffffffffffffffffffffffffffffff1614156115be576040517f08c379a00000000000000000000000000000000000000000000000000000000081526004016115b590614c48565b60405180910390fd5b80915050919050565b600280546115d49061522f565b80601f01602080910402602001604051908101604052809291908181526020018280546116009061522f565b801561164d5780601f106116225761010080835404028352916020019161164d565b820191906000526020600020905b81548152906001019060200180831161163057829003601f168201915b505050505081565b60008073ffffffffffffffffffffffffffffffffffffffff168273ffffffffffffffffffffffffffffffffffffffff1614156116c6576040517f08c379a00000000000000000000000000000000000000000000000000000000081526004016116bd90614c28565b60405180910390fd5b600460008373ffffffffffffffffffffffffffffffffffffffff1673ffffffffffffffffffffffffffffffffffffffff168152602001908152602001600020549050919050565b3373ffffffffffffffffffffffffffffffffffffffff1661172c611906565b73ffffffffffffffffffffffffffffffffffffffff1614611782576040517f08c379a000000000000000000000000000000000000000000000000000000000815260040161177990614ce8565b60405180910390fd5b61178c6000612f28565b565b60606000600460008473ffffffffffffffffffffffffffffffffffffffff1673ffffffffffffffffffffffffffffffffffffffff1681526020019081526020016000205467ffffffffffffffff8111156117eb576117ea61547a565b5b6040519080825280602002602001820160405280156118195781602001602082028036833780820191505090505b50905060006001600060149054906101000a900461ffff1661183b9190614f94565b61ffff169050600080600190505b828110156118cf578573ffffffffffffffffffffffffffffffffffffffff1661187182611515565b73ffffffffffffffffffffffffffffffffffffffff1614156118bc57808483815181106118a1576118a061544b565b5b60200260200101818152505081806118b8906152bd565b9250505b80806118c7906152bd565b915050611849565b50829350505050919050565b600080600760009054906101000a900460ff169150600760019054906101000a900460ff1690509091565b60008060009054906101000a900473ffffffffffffffffffffffffffffffffffffffff16905090565b60606040518060400160405280600281526020017f4c4f000000000000000000000000000000000000000000000000000000000000815250905090565b3373ffffffffffffffffffffffffffffffffffffffff1661198b611906565b73ffffffffffffffffffffffffffffffffffffffff16146119e1576040517f08c379a00000000000000000000000000000000000000000000000000000000081526004016119d890614ce8565b60405180910390fd5b60008251905081518114611a2a576040517f08c379a0000000000000000000000000000000000000000000000000000000008152600401611a2190614d48565b60405180910390fd5b60008060149054906101000a900461ffff1661ffff1690506000806000805b85811015611c0457602081026020890101519250602081026020880101519150611a7282612fec565b15611ab2576040517f08c379a0000000000000000000000000000000000000000000000000000000008152600401611aa990614a88565b60405180910390fd5b82600460008473ffffffffffffffffffffffffffffffffffffffff1673ffffffffffffffffffffffffffffffffffffffff1681526020019081526020016000206000828254611b019190614fcc565b9250508190555060005b83811015611be2578580611b1e906152bd565b965050826003600088815260200190815260200160002060006101000a81548173ffffffffffffffffffffffffffffffffffffffff021916908373ffffffffffffffffffffffffffffffffffffffff160217905550858373ffffffffffffffffffffffffffffffffffffffff16600073ffffffffffffffffffffffffffffffffffffffff167fddf252ad1be2c89b69c2b068fc378daa952ba7f163c4a11628f55a4df523b3ef60405160405180910390a48080611bda906152bd565b915050611b0b565b508284611bef9190614fcc565b93508080611bfc906152bd565b915050611a49565b506115b48410611c49576040517f08c379a0000000000000000000000000000000000000000000000000000000008152600401611c4090614c88565b60405180910390fd5b82600060148282829054906101000a900461ffff16611c689190614f94565b92506101000a81548161ffff021916908361ffff16021790555050505050505050565b3373ffffffffffffffffffffffffffffffffffffffff16611caa611906565b73ffffffffffffffffffffffffffffffffffffffff1614611d00576040517f08c379a0000000000000000000000000000000000000000000000000000000008152600401611cf790614ce8565b60405180910390fd5b8060088190555050565b600760019054906101000a900460ff16611d59576040517f08c379a0000000000000000000000000000000000000000000000000000000008152600401611d5090614b68565b60405180910390fd5b60008060149054906101000a900461ffff1661ffff1690506115b48183611d809190614fcc565b10611dc0576040517f08c379a0000000000000000000000000000000000000000000000000000000008152600401611db790614da8565b60405180910390fd5b6003600a60003373ffffffffffffffffffffffffffffffffffffffff1673ffffffffffffffffffffffffffffffffffffffff16815260200190815260200160002060009054906101000a900460ff1660ff1683611e1d9190614fcc565b108015611e2b575060008214155b611e6a576040517f08c379a0000000000000000000000000000000000000000000000000000000008152600401611e6190614be8565b60405180910390fd5b67013fbe85edc9000082611e7e919061508a565b3414611ebf576040517f08c379a0000000000000000000000000000000000000000000000000000000008152600401611eb690614b88565b60405180910390fd5b81600a60003373ffffffffffffffffffffffffffffffffffffffff1673ffffffffffffffffffffffffffffffffffffffff16815260200190815260200160002060008282829054906101000a900460ff16611f1a9190615022565b92506101000a81548160ff021916908360ff160217905550611f3d823383612d5e565b5050565b611f4c338383612fff565b5050565b3373ffffffffffffffffffffffffffffffffffffffff16611f6f611906565b73ffffffffffffffffffffffffffffffffffffffff1614611fc5576040517f08c379a0000000000000000000000000000000000000000000000000000000008152600401611fbc90614ce8565b60405180910390fd5b60008060149054906101000a900461ffff1661ffff1690506115b48184611fec9190614fcc565b10611ff657600080fd5b612001838383612d5e565b505050565b60008160405160200161201991906147fa565b604051602081830303815290604052805190602001209050919050565b6120403383612752565b61207f576040517f08c379a000000000000000000000000000000000000000000000000000000000815260040161207690614d68565b60405180910390fd5b61208b8484848461316c565b50505050565b3373ffffffffffffffffffffffffffffffffffffffff166120b0611906565b73ffffffffffffffffffffffffffffffffffffffff1614612106576040517f08c379a00000000000000000000000000000000000000000000000000000000081526004016120fd90614ce8565b60405180910390fd5b80600160006101000a81548173ffffffffffffffffffffffffffffffffffffffff021916908373ffffffffffffffffffffffffffffffffffffffff16021790555050565b60008160405160200161215d9190614820565b604051602081830303815290604052805190602001209050919050565b60606121858261262d565b6121c4576040517f08c379a00000000000000000000000000000000000000000000000000000000081526004016121bb90614d08565b60405180910390fd5b60026121cf836131c8565b6040516020016121e0929190614846565b6040516020818303038152906040529050919050565b600160009054906101000a900473ffffffffffffffffffffffffffffffffffffffff1681565b3373ffffffffffffffffffffffffffffffffffffffff1661223b611906565b73ffffffffffffffffffffffffffffffffffffffff1614612291576040517f08c379a000000000000000000000000000000000000000000000000000000000815260040161228890614ce8565b60405180910390fd5b6000600760006101000a81548160ff021916908315150217905550600760019054906101000a900460ff1615600760016101000a81548160ff021916908315150217905550565b600080600160009054906101000a900473ffffffffffffffffffffffffffffffffffffffff1690508273ffffffffffffffffffffffffffffffffffffffff168173ffffffffffffffffffffffffffffffffffffffff1663c4552791866040518263ffffffff1660e01b815260040161235091906148b0565b60206040518083038186803b15801561236857600080fd5b505afa15801561237c573d6000803e3d6000fd5b505050506040513d601f19601f820116820180604052508101906123a09190614002565b73ffffffffffffffffffffffffffffffffffffffff1614156123c6576001915050612454565b600660008573ffffffffffffffffffffffffffffffffffffffff1673ffffffffffffffffffffffffffffffffffffffff16815260200190815260200160002060008473ffffffffffffffffffffffffffffffffffffffff1673ffffffffffffffffffffffffffffffffffffffff16815260200190815260200160002060009054906101000a900460ff169150505b92915050565b3373ffffffffffffffffffffffffffffffffffffffff16612479611906565b73ffffffffffffffffffffffffffffffffffffffff16146124cf576040517f08c379a00000000000000000000000000000000000000000000000000000000081526004016124c690614ce8565b60405180910390fd5b600073ffffffffffffffffffffffffffffffffffffffff168173ffffffffffffffffffffffffffffffffffffffff16141561253f576040517f08c379a000000000000000000000000000000000000000000000000000000000815260040161253690614aa8565b60405180910390fd5b61254881612f28565b50565b60007f80ac58cd000000000000000000000000000000000000000000000000000000007bffffffffffffffffffffffffffffffffffffffffffffffffffffffff1916827bffffffffffffffffffffffffffffffffffffffffffffffffffffffff1916148061261657507f5b5e139f000000000000000000000000000000000000000000000000000000007bffffffffffffffffffffffffffffffffffffffffffffffffffffffff1916827bffffffffffffffffffffffffffffffffffffffffffffffffffffffff1916145b80612626575061262582613329565b5b9050919050565b60008073ffffffffffffffffffffffffffffffffffffffff166003600084815260200190815260200160002060009054906101000a900473ffffffffffffffffffffffffffffffffffffffff1673ffffffffffffffffffffffffffffffffffffffff1614159050919050565b816005600083815260200190815260200160002060006101000a81548173ffffffffffffffffffffffffffffffffffffffff021916908373ffffffffffffffffffffffffffffffffffffffff160217905550808273ffffffffffffffffffffffffffffffffffffffff1661270c83611515565b73ffffffffffffffffffffffffffffffffffffffff167f8c5be1e5ebec7d5bd14f71427d1e84f3dd0314c0f7b2291e5b200ac8c7c3b92560405160405180910390a45050565b600061275d8261262d565b61279c576040517f08c379a000000000000000000000000000000000000000000000000000000000815260040161279390614bc8565b60405180910390fd5b60006003600084815260200190815260200160002060009054906101000a900473ffffffffffffffffffffffffffffffffffffffff1690508073ffffffffffffffffffffffffffffffffffffffff168473ffffffffffffffffffffffffffffffffffffffff16148061284157508373ffffffffffffffffffffffffffffffffffffffff1661282984610954565b73ffffffffffffffffffffffffffffffffffffffff16145b80612852575061285181856122d8565b5b91505092915050565b8273ffffffffffffffffffffffffffffffffffffffff166003600083815260200190815260200160002060009054906101000a900473ffffffffffffffffffffffffffffffffffffffff1673ffffffffffffffffffffffffffffffffffffffff16146128fc576040517f08c379a00000000000000000000000000000000000000000000000000000000081526004016128f390614ac8565b60405180910390fd5b600073ffffffffffffffffffffffffffffffffffffffff168273ffffffffffffffffffffffffffffffffffffffff16141561296c576040517f08c379a000000000000000000000000000000000000000000000000000000000815260040161296390614b08565b60405180910390fd5b612977600082612699565b600460008473ffffffffffffffffffffffffffffffffffffffff1673ffffffffffffffffffffffffffffffffffffffff16815260200190815260200160002060008154809291906129c790615205565b9190505550600460008373ffffffffffffffffffffffffffffffffffffffff1673ffffffffffffffffffffffffffffffffffffffff1681526020019081526020016000206000815480929190612a1c906152bd565b9190505550816003600083815260200190815260200160002060006101000a81548173ffffffffffffffffffffffffffffffffffffffff021916908373ffffffffffffffffffffffffffffffffffffffff160217905550808273ffffffffffffffffffffffffffffffffffffffff168473ffffffffffffffffffffffffffffffffffffffff167fddf252ad1be2c89b69c2b068fc378daa952ba7f163c4a11628f55a4df523b3ef60405160405180910390a4505050565b6000612add611906565b73ffffffffffffffffffffffffffffffffffffffff16612b2b612b2585604051602001612b0a91906147fa565b60405160208183030381529060405280519060200120613393565b846133c3565b73ffffffffffffffffffffffffffffffffffffffff1614905092915050565b600460008373ffffffffffffffffffffffffffffffffffffffff1673ffffffffffffffffffffffffffffffffffffffff1681526020019081526020016000206000815480929190612b9a906152bd565b9190505550816003600083815260200190815260200160002060006101000a81548173ffffffffffffffffffffffffffffffffffffffff021916908373ffffffffffffffffffffffffffffffffffffffff160217905550808273ffffffffffffffffffffffffffffffffffffffff16600073ffffffffffffffffffffffffffffffffffffffff167fddf252ad1be2c89b69c2b068fc378daa952ba7f163c4a11628f55a4df523b3ef60405160405180910390a46000601481819054906101000a900461ffff1680929190612c6d90615292565b91906101000a81548161ffff021916908361ffff16021790555050612ca460008383604051806020016040528060008152506133ea565b612ce3576040517f08c379a0000000000000000000000000000000000000000000000000000000008152600401612cda90614a68565b60405180910390fd5b5050565b6000612cf1611906565b73ffffffffffffffffffffffffffffffffffffffff16612d3f612d3985604051602001612d1e9190614820565b60405160208183030381529060405280519060200120613393565b846133c3565b73ffffffffffffffffffffffffffffffffffffffff1614905092915050565b82600460008473ffffffffffffffffffffffffffffffffffffffff1673ffffffffffffffffffffffffffffffffffffffff1681526020019081526020016000206000828254612dad9190614fcc565b9250508190555060005b83811015612e8e578180612dca906152bd565b925050826003600084815260200190815260200160002060006101000a81548173ffffffffffffffffffffffffffffffffffffffff021916908373ffffffffffffffffffffffffffffffffffffffff160217905550818373ffffffffffffffffffffffffffffffffffffffff16600073ffffffffffffffffffffffffffffffffffffffff167fddf252ad1be2c89b69c2b068fc378daa952ba7f163c4a11628f55a4df523b3ef60405160405180910390a48080612e86906152bd565b915050612db7565b5082600060148282829054906101000a900461ffff16612eae9190614f94565b92506101000a81548161ffff021916908361ffff160217905550612ee460008383604051806020016040528060008152506133ea565b612f23576040517f08c379a0000000000000000000000000000000000000000000000000000000008152600401612f1a90614a68565b60405180910390fd5b505050565b60008060009054906101000a900473ffffffffffffffffffffffffffffffffffffffff169050816000806101000a81548173ffffffffffffffffffffffffffffffffffffffff021916908373ffffffffffffffffffffffffffffffffffffffff1602179055508173ffffffffffffffffffffffffffffffffffffffff168173ffffffffffffffffffffffffffffffffffffffff167f8be0079c531659141344cd1fd0a4f28419497f9722a3daafe3b4186f6b6457e060405160405180910390a35050565b600080823b905060008111915050919050565b8173ffffffffffffffffffffffffffffffffffffffff168373ffffffffffffffffffffffffffffffffffffffff16141561306e576040517f08c379a000000000000000000000000000000000000000000000000000000000815260040161306590614b28565b60405180910390fd5b80600660008573ffffffffffffffffffffffffffffffffffffffff1673ffffffffffffffffffffffffffffffffffffffff16815260200190815260200160002060008473ffffffffffffffffffffffffffffffffffffffff1673ffffffffffffffffffffffffffffffffffffffff16815260200190815260200160002060006101000a81548160ff0219169083151502179055508173ffffffffffffffffffffffffffffffffffffffff168373ffffffffffffffffffffffffffffffffffffffff167f17307eab39ab6107e8899845ad3d59bd9653f200f220920489ca2b5937696c318360405161315f9190614962565b60405180910390a3505050565b61317784848461285b565b613183848484846133ea565b6131c2576040517f08c379a00000000000000000000000000000000000000000000000000000000081526004016131b990614a68565b60405180910390fd5b50505050565b60606000821415613210576040518060400160405280600181526020017f30000000000000000000000000000000000000000000000000000000000000008152509050613324565b600082905060005b6000821461324257808061322b906152bd565b915050600a8261323b9190615059565b9150613218565b60008167ffffffffffffffff81111561325e5761325d61547a565b5b6040519080825280601f01601f1916602001820160405280156132905781602001600182028036833780820191505090505b5090505b6000851461331d576001826132a991906150e4565b9150600a856132b8919061535e565b60306132c49190614fcc565b60f81b8183815181106132da576132d961544b565b5b60200101907effffffffffffffffffffffffffffffffffffffffffffffffffffffffffffff1916908160001a905350600a856133169190615059565b9450613294565b8093505050505b919050565b60007f01ffc9a7000000000000000000000000000000000000000000000000000000007bffffffffffffffffffffffffffffffffffffffffffffffffffffffff1916827bffffffffffffffffffffffffffffffffffffffffffffffffffffffff1916149050919050565b6000816040516020016133a69190614875565b604051602081830303815290604052805190602001209050919050565b60008060006133d2858561357a565b915091506133df816135fd565b819250505092915050565b600061340b8473ffffffffffffffffffffffffffffffffffffffff16612fec565b1561356d578373ffffffffffffffffffffffffffffffffffffffff1663150b7a02338786866040518563ffffffff1660e01b815260040161344f94939291906148cb565b602060405180830381600087803b15801561346957600080fd5b505af192505050801561349a57506040513d601f19601f820116820180604052508101906134979190613f28565b60015b61351d573d80600081146134ca576040519150601f19603f3d011682016040523d82523d6000602084013e6134cf565b606091505b50600081511415613515576040517f08c379a000000000000000000000000000000000000000000000000000000000815260040161350c90614a68565b60405180910390fd5b805181602001fd5b63150b7a0260e01b7bffffffffffffffffffffffffffffffffffffffffffffffffffffffff1916817bffffffffffffffffffffffffffffffffffffffffffffffffffffffff191614915050613572565b600190505b949350505050565b6000806041835114156135bc5760008060006020860151925060408601519150606086015160001a90506135b0878285856137d2565b945094505050506135f6565b6040835114156135ed5760008060208501519150604085015190506135e28683836138df565b9350935050506135f6565b60006002915091505b9250929050565b60006004811115613611576136106153ed565b5b816004811115613624576136236153ed565b5b141561362f576137cf565b60016004811115613643576136426153ed565b5b816004811115613656576136556153ed565b5b1415613697576040517f08c379a000000000000000000000000000000000000000000000000000000000815260040161368e90614a28565b60405180910390fd5b600260048111156136ab576136aa6153ed565b5b8160048111156136be576136bd6153ed565b5b14156136ff576040517f08c379a00000000000000000000000000000000000000000000000000000000081526004016136f690614a48565b60405180910390fd5b60036004811115613713576137126153ed565b5b816004811115613726576137256153ed565b5b1415613767576040517f08c379a000000000000000000000000000000000000000000000000000000000815260040161375e90614ba8565b60405180910390fd5b60048081111561377a576137796153ed565b5b81600481111561378d5761378c6153ed565b5b14156137ce576040517f08c379a00000000000000000000000000000000000000000000000000000000081526004016137c590614c68565b60405180910390fd5b5b50565b6000807f7fffffffffffffffffffffffffffffff5d576e7357a4501ddfe92f46681b20a08360001c111561380d5760006003915091506138d6565b601b8560ff16141580156138255750601c8560ff1614155b156138375760006004915091506138d6565b60006001878787876040516000815260200160405260405161385c94939291906149c1565b6020604051602081039080840390855afa15801561387e573d6000803e3d6000fd5b505050602060405103519050600073ffffffffffffffffffffffffffffffffffffffff168173ffffffffffffffffffffffffffffffffffffffff1614156138cd576000600192509250506138d6565b80600092509250505b94509492505050565b6000806000807f7fffffffffffffffffffffffffffffffffffffffffffffffffffffffffffffff85169150601b8560ff1c01905061391f878288856137d2565b935093505050935093915050565b8280546139399061522f565b90600052602060002090601f01602090048101928261395b57600085556139a2565b82601f1061397457805160ff19168380011785556139a2565b828001600101855582156139a2579182015b828111156139a1578251825591602001919060010190613986565b5b5090506139af91906139b3565b5090565b5b808211156139cc5760008160009055506001016139b4565b5090565b60006139e36139de84614e3e565b614e19565b90508083825260208201905082856020860282011115613a0657613a056154b3565b5b60005b85811015613a365781613a1c8882613b34565b845260208401935060208301925050600181019050613a09565b5050509392505050565b6000613a53613a4e84614e6a565b614e19565b90508083825260208201905082856020860282011115613a7657613a756154b3565b5b60005b85811015613aa65781613a8c8882613cab565b845260208401935060208301925050600181019050613a79565b5050509392505050565b6000613ac3613abe84614e96565b614e19565b905082815260208101848484011115613adf57613ade6154b8565b5b613aea8482856151c3565b509392505050565b6000613b05613b0084614ec7565b614e19565b905082815260208101848484011115613b2157613b206154b8565b5b613b2c8482856151c3565b509392505050565b600081359050613b4381615c91565b92915050565b600082601f830112613b5e57613b5d6154ae565b5b8135613b6e8482602086016139d0565b91505092915050565b600082601f830112613b8c57613b8b6154ae565b5b8135613b9c848260208601613a40565b91505092915050565b600081359050613bb481615ca8565b92915050565b600081359050613bc981615cbf565b92915050565b600081519050613bde81615cbf565b92915050565b60008083601f840112613bfa57613bf96154ae565b5b8235905067ffffffffffffffff811115613c1757613c166154a9565b5b602083019150836001820283011115613c3357613c326154b3565b5b9250929050565b600082601f830112613c4f57613c4e6154ae565b5b8135613c5f848260208601613ab0565b91505092915050565b600081519050613c7781615cd6565b92915050565b600082601f830112613c9257613c916154ae565b5b8135613ca2848260208601613af2565b91505092915050565b600081359050613cba81615ced565b92915050565b600060208284031215613cd657613cd56154c2565b5b6000613ce484828501613b34565b91505092915050565b60008060408385031215613d0457613d036154c2565b5b6000613d1285828601613b34565b9250506020613d2385828601613b34565b9150509250929050565b600080600060608486031215613d4657613d456154c2565b5b6000613d5486828701613b34565b9350506020613d6586828701613b34565b9250506040613d7686828701613cab565b9150509250925092565b60008060008060808587031215613d9a57613d996154c2565b5b6000613da887828801613b34565b9450506020613db987828801613b34565b9350506040613dca87828801613cab565b925050606085013567ffffffffffffffff811115613deb57613dea6154bd565b5b613df787828801613c3a565b91505092959194509250565b60008060408385031215613e1a57613e196154c2565b5b6000613e2885828601613b34565b9250506020613e3985828601613ba5565b9150509250929050565b60008060408385031215613e5a57613e596154c2565b5b6000613e6885828601613b34565b9250506020613e7985828601613cab565b9150509250929050565b60008060408385031215613e9a57613e996154c2565b5b600083013567ffffffffffffffff811115613eb857613eb76154bd565b5b613ec485828601613b77565b925050602083013567ffffffffffffffff811115613ee557613ee46154bd565b5b613ef185828601613b49565b9150509250929050565b600060208284031215613f1157613f106154c2565b5b6000613f1f84828501613bba565b91505092915050565b600060208284031215613f3e57613f3d6154c2565b5b6000613f4c84828501613bcf565b91505092915050565b60008060208385031215613f6c57613f6b6154c2565b5b600083013567ffffffffffffffff811115613f8a57613f896154bd565b5b613f9685828601613be4565b92509250509250929050565b600080600060408486031215613fbb57613fba6154c2565b5b600084013567ffffffffffffffff811115613fd957613fd86154bd565b5b613fe586828701613be4565b93509350506020613ff886828701613cab565b9150509250925092565b600060208284031215614018576140176154c2565b5b600061402684828501613c68565b91505092915050565b600060208284031215614045576140446154c2565b5b600082013567ffffffffffffffff811115614063576140626154bd565b5b61406f84828501613c7d565b91505092915050565b60006020828403121561408e5761408d6154c2565b5b600061409c84828501613cab565b91505092915050565b600080604083850312156140bc576140bb6154c2565b5b60006140ca85828601613cab565b92505060206140db85828601613b34565b9150509250929050565b600080604083850312156140fc576140fb6154c2565b5b600061410a85828601613cab565b925050602061411b85828601613cab565b9150509250929050565b600061413183836147cd565b60208301905092915050565b61414681615118565b82525050565b61415d61415882615118565b615330565b82525050565b600061416e82614f1d565b6141788185614f4b565b935061418383614ef8565b8060005b838110156141b457815161419b8882614125565b97506141a683614f3e565b925050600181019050614187565b5085935050505092915050565b6141ca8161512a565b82525050565b6141d981615136565b82525050565b6141f06141eb82615136565b615342565b82525050565b600061420182614f28565b61420b8185614f5c565b935061421b8185602086016151d2565b614224816154c7565b840191505092915050565b600061423a82614f33565b6142448185614f78565b93506142548185602086016151d2565b61425d816154c7565b840191505092915050565b600061427382614f33565b61427d8185614f89565b935061428d8185602086016151d2565b80840191505092915050565b600081546142a68161522f565b6142b08186614f89565b945060018216600081146142cb57600181146142dc5761430f565b60ff1983168652818601935061430f565b6142e585614f08565b60005b83811015614307578154818901526001820191506020810190506142e8565b838801955050505b50505092915050565b6000614325601883614f78565b9150614330826154e5565b602082019050919050565b6000614348601f83614f78565b91506143538261550e565b602082019050919050565b600061436b601c83614f89565b915061437682615537565b601c82019050919050565b600061438e600383614f89565b915061439982615560565b600382019050919050565b60006143b1603283614f78565b91506143bc82615589565b604082019050919050565b60006143d4601983614f78565b91506143df826155d8565b602082019050919050565b60006143f7602683614f78565b915061440282615601565b604082019050919050565b600061441a602583614f78565b915061442582615650565b604082019050919050565b600061443d602283614f78565b91506144488261569f565b604082019050919050565b6000614460602483614f78565b915061446b826156ee565b604082019050919050565b6000614483601983614f78565b915061448e8261573d565b602082019050919050565b60006144a6601d83614f78565b91506144b182615766565b602082019050919050565b60006144c9601783614f78565b91506144d48261578f565b602082019050919050565b60006144ec601a83614f78565b91506144f7826157b8565b602082019050919050565b600061450f602283614f78565b915061451a826157e1565b604082019050919050565b6000614532602c83614f78565b915061453d82615830565b604082019050919050565b6000614555601f83614f78565b91506145608261587f565b602082019050919050565b6000614578603883614f78565b9150614583826158a8565b604082019050919050565b600061459b602a83614f78565b91506145a6826158f7565b604082019050919050565b60006145be602983614f78565b91506145c982615946565b604082019050919050565b60006145e1602283614f78565b91506145ec82615995565b604082019050919050565b6000614604601083614f78565b915061460f826159e4565b602082019050919050565b6000614627602783614f78565b915061463282615a0d565b604082019050919050565b600061464a602c83614f78565b915061465582615a5c565b604082019050919050565b600061466d600583614f89565b915061467882615aab565b600582019050919050565b6000614690602083614f78565b915061469b82615ad4565b602082019050919050565b60006146b3602f83614f78565b91506146be82615afd565b604082019050919050565b60006146d6602183614f78565b91506146e182615b4c565b604082019050919050565b60006146f9601683614f78565b915061470482615b9b565b602082019050919050565b600061471c600083614f6d565b915061472782615bc4565b600082019050919050565b600061473f603183614f78565b915061474a82615bc7565b604082019050919050565b6000614762601583614f78565b915061476d82615c16565b602082019050919050565b6000614785601b83614f78565b915061479082615c3f565b602082019050919050565b60006147a8600283614f89565b91506147b382615c68565b600282019050919050565b6147c78161517e565b82525050565b6147d6816151ac565b82525050565b6147e5816151ac565b82525050565b6147f4816151b6565b82525050565b6000614806828461414c565b60148201915061481582614381565b915081905092915050565b600061482c828461414c565b60148201915061483b8261479b565b915081905092915050565b60006148528285614299565b915061485e8284614268565b915061486982614660565b91508190509392505050565b60006148808261435e565b915061488c82846141df565b60208201915081905092915050565b60006148a68261470f565b9150819050919050565b60006020820190506148c5600083018461413d565b92915050565b60006080820190506148e0600083018761413d565b6148ed602083018661413d565b6148fa60408301856147dc565b818103606083015261490c81846141f6565b905095945050505050565b600060408201905061492c600083018561413d565b61493960208301846147dc565b9392505050565b6000602082019050818103600083015261495a8184614163565b905092915050565b600060208201905061497760008301846141c1565b92915050565b600060408201905061499260008301856141c1565b61499f60208301846141c1565b9392505050565b60006020820190506149bb60008301846141d0565b92915050565b60006080820190506149d660008301876141d0565b6149e360208301866147eb565b6149f060408301856141d0565b6149fd60608301846141d0565b95945050505050565b60006020820190508181036000830152614a20818461422f565b905092915050565b60006020820190508181036000830152614a4181614318565b9050919050565b60006020820190508181036000830152614a618161433b565b9050919050565b60006020820190508181036000830152614a81816143a4565b9050919050565b60006020820190508181036000830152614aa1816143c7565b9050919050565b60006020820190508181036000830152614ac1816143ea565b9050919050565b60006020820190508181036000830152614ae18161440d565b9050919050565b60006020820190508181036000830152614b0181614430565b9050919050565b60006020820190508181036000830152614b2181614453565b9050919050565b60006020820190508181036000830152614b4181614476565b9050919050565b60006020820190508181036000830152614b6181614499565b9050919050565b60006020820190508181036000830152614b81816144bc565b9050919050565b60006020820190508181036000830152614ba1816144df565b9050919050565b60006020820190508181036000830152614bc181614502565b9050919050565b60006020820190508181036000830152614be181614525565b9050919050565b60006020820190508181036000830152614c0181614548565b9050919050565b60006020820190508181036000830152614c218161456b565b9050919050565b60006020820190508181036000830152614c418161458e565b9050919050565b60006020820190508181036000830152614c61816145b1565b9050919050565b60006020820190508181036000830152614c81816145d4565b9050919050565b60006020820190508181036000830152614ca1816145f7565b9050919050565b60006020820190508181036000830152614cc18161461a565b9050919050565b60006020820190508181036000830152614ce18161463d565b9050919050565b60006020820190508181036000830152614d0181614683565b9050919050565b60006020820190508181036000830152614d21816146a6565b9050919050565b60006020820190508181036000830152614d41816146c9565b9050919050565b60006020820190508181036000830152614d61816146ec565b9050919050565b60006020820190508181036000830152614d8181614732565b9050919050565b60006020820190508181036000830152614da181614755565b9050919050565b60006020820190508181036000830152614dc181614778565b9050919050565b6000602082019050614ddd60008301846147be565b92915050565b6000602082019050614df860008301846147dc565b92915050565b6000602082019050614e1360008301846147eb565b92915050565b6000614e23614e34565b9050614e2f8282615261565b919050565b6000604051905090565b600067ffffffffffffffff821115614e5957614e5861547a565b5b602082029050602081019050919050565b600067ffffffffffffffff821115614e8557614e8461547a565b5b602082029050602081019050919050565b600067ffffffffffffffff821115614eb157614eb061547a565b5b614eba826154c7565b9050602081019050919050565b600067ffffffffffffffff821115614ee257614ee161547a565b5b614eeb826154c7565b9050602081019050919050565b6000819050602082019050919050565b60008190508160005260206000209050919050565b600081519050919050565b600081519050919050565b600081519050919050565b6000602082019050919050565b600082825260208201905092915050565b600082825260208201905092915050565b600081905092915050565b600082825260208201905092915050565b600081905092915050565b6000614f9f8261517e565b9150614faa8361517e565b92508261ffff03821115614fc157614fc061538f565b5b828201905092915050565b6000614fd7826151ac565b9150614fe2836151ac565b9250827fffffffffffffffffffffffffffffffffffffffffffffffffffffffffffffffff038211156150175761501661538f565b5b828201905092915050565b600061502d826151b6565b9150615038836151b6565b92508260ff0382111561504e5761504d61538f565b5b828201905092915050565b6000615064826151ac565b915061506f836151ac565b92508261507f5761507e6153be565b5b828204905092915050565b6000615095826151ac565b91506150a0836151ac565b9250817fffffffffffffffffffffffffffffffffffffffffffffffffffffffffffffffff04831182151516156150d9576150d861538f565b5b828202905092915050565b60006150ef826151ac565b91506150fa836151ac565b92508282101561510d5761510c61538f565b5b828203905092915050565b60006151238261518c565b9050919050565b60008115159050919050565b6000819050919050565b60007fffffffff0000000000000000000000000000000000000000000000000000000082169050919050565b600061517782615118565b9050919050565b600061ffff82169050919050565b600073ffffffffffffffffffffffffffffffffffffffff82169050919050565b6000819050919050565b600060ff82169050919050565b82818337600083830152505050565b60005b838110156151f05780820151818401526020810190506151d5565b838111156151ff576000848401525b50505050565b6000615210826151ac565b915060008214156152245761522361538f565b5b600182039050919050565b6000600282049050600182168061524757607f821691505b6020821081141561525b5761525a61541c565b5b50919050565b61526a826154c7565b810181811067ffffffffffffffff821117156152895761528861547a565b5b80604052505050565b600061529d8261517e565b915061ffff8214156152b2576152b161538f565b5b600182019050919050565b60006152c8826151ac565b91507fffffffffffffffffffffffffffffffffffffffffffffffffffffffffffffffff8214156152fb576152fa61538f565b5b600182019050919050565b6000615311826151b6565b915060ff8214156153255761532461538f565b5b600182019050919050565b600061533b8261534c565b9050919050565b6000819050919050565b6000615357826154d8565b9050919050565b6000615369826151ac565b9150615374836151ac565b925082615384576153836153be565b5b828206905092915050565b7f4e487b7100000000000000000000000000000000000000000000000000000000600052601160045260246000fd5b7f4e487b7100000000000000000000000000000000000000000000000000000000600052601260045260246000fd5b7f4e487b7100000000000000000000000000000000000000000000000000000000600052602160045260246000fd5b7f4e487b7100000000000000000000000000000000000000000000000000000000600052602260045260246000fd5b7f4e487b7100000000000000000000000000000000000000000000000000000000600052603260045260246000fd5b7f4e487b7100000000000000000000000000000000000000000000000000000000600052604160045260246000fd5b600080fd5b600080fd5b600080fd5b600080fd5b600080fd5b600080fd5b6000601f19601f8301169050919050565b60008160601b9050919050565b7f45434453413a20696e76616c6964207369676e61747572650000000000000000600082015250565b7f45434453413a20696e76616c6964207369676e6174757265206c656e67746800600082015250565b7f19457468657265756d205369676e6564204d6573736167653a0a333200000000600082015250565b7f46414d0000000000000000000000000000000000000000000000000000000000600082015250565b7f4552433732313a207472616e7366657220746f206e6f6e20455243373231526560008201527f63656976657220696d706c656d656e7465720000000000000000000000000000602082015250565b7f43616e6e6f74206d696e7420746f20636f6e7472616374732100000000000000600082015250565b7f4f776e61626c653a206e6577206f776e657220697320746865207a65726f206160008201527f6464726573730000000000000000000000000000000000000000000000000000602082015250565b7f4552433732313a207472616e736665722066726f6d20696e636f72726563742060008201527f6f776e6572000000000000000000000000000000000000000000000000000000602082015250565b7f5472616e7366657220746f20636f6e7472616374206f776e6572206661696c6560008201527f6421000000000000000000000000000000000000000000000000000000000000602082015250565b7f4552433732313a207472616e7366657220746f20746865207a65726f2061646460008201527f7265737300000000000000000000000000000000000000000000000000000000602082015250565b7f4552433732313a20617070726f766520746f2063616c6c657200000000000000600082015250565b7f5472616e7366657220746f20636f72652064657673206661696c656421000000600082015250565b7f4d696e74696e67206973206e6f7420656e61626c656421000000000000000000600082015250565b7f45544820416d6f756e74206973206e6f7420636f727265637421000000000000600082015250565b7f45434453413a20696e76616c6964207369676e6174757265202773272076616c60008201527f7565000000000000000000000000000000000000000000000000000000000000602082015250565b7f4552433732313a206f70657261746f7220717565727920666f72206e6f6e657860008201527f697374656e7420746f6b656e0000000000000000000000000000000000000000602082015250565b7f526571756573742065786365656473206d6178207065722077616c6c65742100600082015250565b7f4552433732313a20617070726f76652063616c6c6572206973206e6f74206f7760008201527f6e6572206e6f7220617070726f76656420666f7220616c6c0000000000000000602082015250565b7f4552433732313a2062616c616e636520717565727920666f7220746865207a6560008201527f726f206164647265737300000000000000000000000000000000000000000000602082015250565b7f4552433732313a206f776e657220717565727920666f72206e6f6e657869737460008201527f656e7420746f6b656e0000000000000000000000000000000000000000000000602082015250565b7f45434453413a20696e76616c6964207369676e6174757265202776272076616c60008201527f7565000000000000000000000000000000000000000000000000000000000000602082015250565b7f4578636565647320726573657276652100000000000000000000000000000000600082015250565b7f526f79616c6974792071756572727920666f72206e6f6e2d6578697374616e7460008201527f20746f6b656e2100000000000000000000000000000000000000000000000000602082015250565b7f4552433732313a20617070726f76656420717565727920666f72206e6f6e657860008201527f697374656e7420746f6b656e0000000000000000000000000000000000000000602082015250565b7f2e6a736f6e000000000000000000000000000000000000000000000000000000600082015250565b7f4f776e61626c653a2063616c6c6572206973206e6f7420746865206f776e6572600082015250565b7f4552433732314d657461646174613a2055524920717565727920666f72206e6f60008201527f6e6578697374656e7420746f6b656e0000000000000000000000000000000000602082015250565b7f4552433732313a20617070726f76616c20746f2063757272656e74206f776e6560008201527f7200000000000000000000000000000000000000000000000000000000000000602082015250565b7f6172726179206c656e677468206d6973736d6174636800000000000000000000600082015250565b50565b7f4552433732313a207472616e736665722063616c6c6572206973206e6f74206f60008201527f776e6572206e6f7220617070726f766564000000000000000000000000000000602082015250565b7f55736572206e6f742077686974656c6973746564210000000000000000000000600082015250565b7f526571756573742065786365656473206d617820737570706c79210000000000600082015250565b7f4f47000000000000000000000000000000000000000000000000000000000000600082015250565b615c9a81615118565b8114615ca557600080fd5b50565b615cb18161512a565b8114615cbc57600080fd5b50565b615cc881615140565b8114615cd357600080fd5b50565b615cdf8161516c565b8114615cea57600080fd5b50565b615cf6816151ac565b8114615d0157600080fd5b5056fea264697066735822122057439cff7eecae9fabe911527479acff9375c25bd6aed5e388ddc5ca2be8ddef64736f6c63430008070033",
  "immutableReferences": {},
  "source": "// SPDX-License-Identifier: MIT\r\n\r\npragma solidity ^0.8.7;\r\n\r\n\r\n/**\r\n * @title LoFi Originals\r\n * @author The Core Devs (@TheCoreDevs)\r\n */\r\n\r\n\r\n// File: contracts/Ownable.sol\r\n\r\n/**\r\n * @dev Contract module which provides a basic access control mechanism, where\r\n * there is an account (an owner) that can be granted exclusive access to\r\n * specific functions.\r\n *\r\n * By default, the owner account will be the one that deploys the contract. This\r\n * can later be changed with {transferOwnership}.\r\n *\r\n * This module is used through inheritance. It will make available the modifier\r\n * `onlyOwner`, which can be applied to your functions to restrict their use to\r\n * the owner.\r\n *\r\n * Source: openzeppelin\r\n */\r\nabstract contract Ownable {\r\n    address private _owner;\r\n\r\n    event OwnershipTransferred(address indexed previousOwner, address indexed newOwner);\r\n\r\n    /**\r\n     * @dev Initializes the contract setting the deployer as the initial owner.\r\n     */\r\n    constructor() {\r\n        _setOwner(msg.sender);\r\n    }\r\n\r\n    /**\r\n     * @dev Returns the address of the current owner.\r\n     */\r\n    function owner() public view virtual returns (address) {\r\n        return _owner;\r\n    }\r\n\r\n    /**\r\n     * @dev Throws if called by any account other than the owner.\r\n     */\r\n    modifier onlyOwner() {\r\n        require(owner() == msg.sender, \"Ownable: caller is not the owner\");\r\n        _;\r\n    }\r\n\r\n    /**\r\n     * @dev Leaves the contract without owner. It will not be possible to call\r\n     * `onlyOwner` functions anymore. Can only be called by the current owner.\r\n     *\r\n     * NOTE: Renouncing ownership will leave the contract without an owner,\r\n     * thereby removing any functionality that is only available to the owner.\r\n     */\r\n    function renounceOwnership() external virtual onlyOwner {\r\n        _setOwner(address(0));\r\n    }\r\n\r\n    /**\r\n     * @dev Transfers ownership of the contract to a new account (`newOwner`).\r\n     * Can only be called by the current owner.\r\n     */\r\n    function transferOwnership(address newOwner) external virtual onlyOwner {\r\n        require(newOwner != address(0), \"Ownable: new owner is the zero address\");\r\n        _setOwner(newOwner);\r\n    }\r\n\r\n    function _setOwner(address newOwner) private {\r\n        address oldOwner = _owner;\r\n        _owner = newOwner;\r\n        emit OwnershipTransferred(oldOwner, newOwner);\r\n    }\r\n}\r\n\r\n// File: Strings.sol\r\n\r\n/**\r\n * Source: Openzeppelin\r\n */\r\n\r\n/**\r\n * @dev String operations.\r\n */\r\nlibrary Strings {\r\n\r\n    /**\r\n     * @dev Converts a `uint256` to its ASCII `string` decimal representation.\r\n     */\r\n    function toString(uint256 value) internal pure returns (string memory) {\r\n        // Inspired by OraclizeAPI's implementation - MIT licence\r\n        // https://github.com/oraclize/ethereum-api/blob/b42146b063c7d6ee1358846c198246239e9360e8/oraclizeAPI_0.4.25.sol\r\n\r\n        if (value == 0) {\r\n            return \"0\";\r\n        }\r\n        uint256 temp = value;\r\n        uint256 digits;\r\n        while (temp != 0) {\r\n            digits++;\r\n            temp /= 10;\r\n        }\r\n        bytes memory buffer = new bytes(digits);\r\n        while (value != 0) {\r\n            digits -= 1;\r\n            buffer[digits] = bytes1(uint8(48 + uint256(value % 10)));\r\n            value /= 10;\r\n        }\r\n        return string(buffer);\r\n    }\r\n}\r\n\r\n// File: ECDSA.sol\r\n\r\n// OpenZeppelin Contracts v4.4.0 (utils/cryptography/ECDSA.sol)\r\n\r\n\r\n/**\r\n * @dev Elliptic Curve Digital Signature Algorithm (ECDSA) operations.\r\n *\r\n * These functions can be used to verify that a message was signed by the holder\r\n * of the private keys of a given address.\r\n */\r\nlibrary ECDSA {\r\n    enum RecoverError {\r\n        NoError,\r\n        InvalidSignature,\r\n        InvalidSignatureLength,\r\n        InvalidSignatureS,\r\n        InvalidSignatureV\r\n    }\r\n\r\n    function _throwError(RecoverError error) private pure {\r\n        if (error == RecoverError.NoError) {\r\n            return; // no error: do nothing\r\n        } else if (error == RecoverError.InvalidSignature) {\r\n            revert(\"ECDSA: invalid signature\");\r\n        } else if (error == RecoverError.InvalidSignatureLength) {\r\n            revert(\"ECDSA: invalid signature length\");\r\n        } else if (error == RecoverError.InvalidSignatureS) {\r\n            revert(\"ECDSA: invalid signature 's' value\");\r\n        } else if (error == RecoverError.InvalidSignatureV) {\r\n            revert(\"ECDSA: invalid signature 'v' value\");\r\n        }\r\n    }\r\n\r\n    /**\r\n     * @dev Returns the address that signed a hashed message (`hash`) with\r\n     * `signature` or error string. This address can then be used for verification purposes.\r\n     *\r\n     * The `ecrecover` EVM opcode allows for malleable (non-unique) signatures:\r\n     * this function rejects them by requiring the `s` value to be in the lower\r\n     * half order, and the `v` value to be either 27 or 28.\r\n     *\r\n     * IMPORTANT: `hash` _must_ be the result of a hash operation for the\r\n     * verification to be secure: it is possible to craft signatures that\r\n     * recover to arbitrary addresses for non-hashed data. A safe way to ensure\r\n     * this is by receiving a hash of the original message (which may otherwise\r\n     * be too long), and then calling {toEthSignedMessageHash} on it.\r\n     *\r\n     * Documentation for signature generation:\r\n     * - with https://web3js.readthedocs.io/en/v1.3.4/web3-eth-accounts.html#sign[Web3.js]\r\n     * - with https://docs.ethers.io/v5/api/signer/#Signer-signMessage[ethers]\r\n     *\r\n     * _Available since v4.3._\r\n     */\r\n    function tryRecover(bytes32 hash, bytes memory signature) internal pure returns (address, RecoverError) {\r\n        // Check the signature length\r\n        // - case 65: r,s,v signature (standard)\r\n        // - case 64: r,vs signature (cf https://eips.ethereum.org/EIPS/eip-2098) _Available since v4.1._\r\n        if (signature.length == 65) {\r\n            bytes32 r;\r\n            bytes32 s;\r\n            uint8 v;\r\n            // ecrecover takes the signature parameters, and the only way to get them\r\n            // currently is to use assembly.\r\n            assembly {\r\n                r := mload(add(signature, 0x20))\r\n                s := mload(add(signature, 0x40))\r\n                v := byte(0, mload(add(signature, 0x60)))\r\n            }\r\n            return tryRecover(hash, v, r, s);\r\n        } else if (signature.length == 64) {\r\n            bytes32 r;\r\n            bytes32 vs;\r\n            // ecrecover takes the signature parameters, and the only way to get them\r\n            // currently is to use assembly.\r\n            assembly {\r\n                r := mload(add(signature, 0x20))\r\n                vs := mload(add(signature, 0x40))\r\n            }\r\n            return tryRecover(hash, r, vs);\r\n        } else {\r\n            return (address(0), RecoverError.InvalidSignatureLength);\r\n        }\r\n    }\r\n\r\n    /**\r\n     * @dev Returns the address that signed a hashed message (`hash`) with\r\n     * `signature`. This address can then be used for verification purposes.\r\n     *\r\n     * The `ecrecover` EVM opcode allows for malleable (non-unique) signatures:\r\n     * this function rejects them by requiring the `s` value to be in the lower\r\n     * half order, and the `v` value to be either 27 or 28.\r\n     *\r\n     * IMPORTANT: `hash` _must_ be the result of a hash operation for the\r\n     * verification to be secure: it is possible to craft signatures that\r\n     * recover to arbitrary addresses for non-hashed data. A safe way to ensure\r\n     * this is by receiving a hash of the original message (which may otherwise\r\n     * be too long), and then calling {toEthSignedMessageHash} on it.\r\n     */\r\n    function recover(bytes32 hash, bytes memory signature) internal pure returns (address) {\r\n        (address recovered, RecoverError error) = tryRecover(hash, signature);\r\n        _throwError(error);\r\n        return recovered;\r\n    }\r\n\r\n    /**\r\n     * @dev Overload of {ECDSA-tryRecover} that receives the `r` and `vs` short-signature fields separately.\r\n     *\r\n     * See https://eips.ethereum.org/EIPS/eip-2098[EIP-2098 short signatures]\r\n     *\r\n     * _Available since v4.3._\r\n     */\r\n    function tryRecover(\r\n        bytes32 hash,\r\n        bytes32 r,\r\n        bytes32 vs\r\n    ) internal pure returns (address, RecoverError) {\r\n        bytes32 s;\r\n        uint8 v;\r\n        assembly {\r\n            s := and(vs, 0x7fffffffffffffffffffffffffffffffffffffffffffffffffffffffffffffff)\r\n            v := add(shr(255, vs), 27)\r\n        }\r\n        return tryRecover(hash, v, r, s);\r\n    }\r\n\r\n    /**\r\n     * @dev Overload of {ECDSA-tryRecover} that receives the `v`,\r\n     * `r` and `s` signature fields separately.\r\n     *\r\n     * _Available since v4.3._\r\n     */\r\n    function tryRecover(\r\n        bytes32 hash,\r\n        uint8 v,\r\n        bytes32 r,\r\n        bytes32 s\r\n    ) internal pure returns (address, RecoverError) {\r\n        // EIP-2 still allows signature malleability for ecrecover(). Remove this possibility and make the signature\r\n        // unique. Appendix F in the Ethereum Yellow paper (https://ethereum.github.io/yellowpaper/paper.pdf), defines\r\n        // the valid range for s in (301): 0 < s < secp256k1n  2 + 1, and for v in (302): v  {27, 28}. Most\r\n        // signatures from current libraries generate a unique signature with an s-value in the lower half order.\r\n        //\r\n        // If your library generates malleable signatures, such as s-values in the upper range, calculate a new s-value\r\n        // with 0xFFFFFFFFFFFFFFFFFFFFFFFFFFFFFFFEBAAEDCE6AF48A03BBFD25E8CD0364141 - s1 and flip v from 27 to 28 or\r\n        // vice versa. If your library also generates signatures with 0/1 for v instead 27/28, add 27 to v to accept\r\n        // these malleable signatures as well.\r\n        if (uint256(s) > 0x7FFFFFFFFFFFFFFFFFFFFFFFFFFFFFFF5D576E7357A4501DDFE92F46681B20A0) {\r\n            return (address(0), RecoverError.InvalidSignatureS);\r\n        }\r\n        if (v != 27 && v != 28) {\r\n            return (address(0), RecoverError.InvalidSignatureV);\r\n        }\r\n\r\n        // If the signature is valid (and not malleable), return the signer address\r\n        address signer = ecrecover(hash, v, r, s);\r\n        if (signer == address(0)) {\r\n            return (address(0), RecoverError.InvalidSignature);\r\n        }\r\n\r\n        return (signer, RecoverError.NoError);\r\n    }\r\n\r\n    /**\r\n     * @dev Returns an Ethereum Signed Message, created from a `hash`. This\r\n     * produces hash corresponding to the one signed with the\r\n     * https://eth.wiki/json-rpc/API#eth_sign[`eth_sign`]\r\n     * JSON-RPC method as part of EIP-191.\r\n     *\r\n     * See {recover}.\r\n     */\r\n    function toEthSignedMessageHash(bytes32 hash) internal pure returns (bytes32) {\r\n        // 32 is the length in bytes of hash,\r\n        // enforced by the type signature above\r\n        return keccak256(abi.encodePacked(\"\\x19Ethereum Signed Message:\\n32\", hash));\r\n    }\r\n\r\n}\r\n\r\n// File: Address.sol0\r\n\r\n/**\r\n * Source: Openzeppelin\r\n */\r\n\r\n/**\r\n * @dev Collection of functions related to the address type\r\n */\r\nlibrary Address {\r\n    /**\r\n     * @dev Returns true if `account` is a contract.\r\n     *\r\n     * [IMPORTANT]\r\n     * ====\r\n     * It is unsafe to assume that an address for which this function returns\r\n     * false is an externally-owned account (EOA) and not a contract.\r\n     *\r\n     * Among others, `isContract` will return false for the following\r\n     * types of addresses:\r\n     *\r\n     *  - an externally-owned account\r\n     *  - a contract in construction\r\n     *  - an address where a contract will be created\r\n     *  - an address where a contract lived, but was destroyed\r\n     * ====\r\n     */\r\n    function isContract(address account) internal view returns (bool) {\r\n        // This method relies on extcodesize, which returns 0 for contracts in\r\n        // construction, since the code is only stored at the end of the\r\n        // constructor execution.\r\n\r\n        uint256 size;\r\n        assembly {\r\n            size := extcodesize(account)\r\n        }\r\n        return size > 0;\r\n    }\r\n}\r\n\r\n// File: IERC721Receiver.sol\r\n\r\n/**\r\n * @title ERC721 token receiver interface\r\n * @dev Interface for any contract that wants to support safeTransfers\r\n * from ERC721 asset contracts.\r\n */\r\ninterface IERC721Receiver {\r\n    /**\r\n     * @dev Whenever an {IERC721} `tokenId` token is transferred to this contract via {IERC721-safeTransferFrom}\r\n     * by `operator` from `from`, this function is called.\r\n     *\r\n     * It must return its Solidity selector to confirm the token transfer.\r\n     * If any other value is returned or the interface is not implemented by the recipient, the transfer will be reverted.\r\n     *\r\n     * The selector can be obtained in Solidity with `IERC721.onERC721Received.selector`.\r\n     */\r\n    function onERC721Received(\r\n        address operator,\r\n        address from,\r\n        uint256 tokenId,\r\n        bytes calldata data\r\n    ) external returns (bytes4);\r\n}\r\n\r\n// File: IERC165.sol\r\n\r\n// https://eips.ethereum.org/EIPS/eip-165\r\n\r\n\r\ninterface IERC165 {\r\n    /// @notice Query if a contract implements an interface\r\n    /// @param interfaceID The interface identifier, as specified in ERC-165\r\n    /// @dev Interface identification is specified in ERC-165. This function\r\n    ///  uses less than 30,000 gas.\r\n    /// @return `true` if the contract implements `interfaceID` and\r\n    ///  `interfaceID` is not 0xffffffff, `false` otherwise\r\n    function supportsInterface(bytes4 interfaceID) external view returns (bool);\r\n}\r\n\r\n// File: IERC2981.sol\r\n\r\n\r\n/**\r\n * Source: Openzeppelin\r\n */\r\n\r\n\r\n/**\r\n * @dev Interface for the NFT Royalty Standard\r\n */\r\ninterface IERC2981 is IERC165 {\r\n    /**\r\n     * @dev Called with the sale price to determine how much royalty is owed and to whom.\r\n     * @param tokenId - the NFT asset queried for royalty information\r\n     * @param salePrice - the sale price of the NFT asset specified by `tokenId`\r\n     * @return receiver - address of who should be sent the royalty payment\r\n     * @return royaltyAmount - the royalty payment amount for `salePrice`\r\n     */\r\n    function royaltyInfo(uint256 tokenId, uint256 salePrice)\r\n        external\r\n        view\r\n        returns (address receiver, uint256 royaltyAmount);\r\n}\r\n\r\n// File: ERC165.sol\r\n\r\n\r\n/**\r\n * Source: Openzeppelin\r\n */\r\n\r\n\r\n/**\r\n * @dev Implementation of the {IERC165} interface.\r\n *\r\n * Contracts that want to implement ERC165 should inherit from this contract and override {supportsInterface} to check\r\n * for the additional interface id that will be supported. For example:\r\n *\r\n * ```solidity\r\n * function supportsInterface(bytes4 interfaceId) public view virtual override returns (bool) {\r\n *     return interfaceId == type(MyInterface).interfaceId || super.supportsInterface(interfaceId);\r\n * }\r\n * ```\r\n *\r\n * Alternatively, {ERC165Storage} provides an easier to use but more expensive implementation.\r\n */\r\nabstract contract ERC165 is IERC165 {\r\n    /**\r\n     * @dev See {IERC165-supportsInterface}.\r\n     */\r\n    function supportsInterface(bytes4 interfaceId) public view virtual override returns (bool) {\r\n        return interfaceId == type(IERC165).interfaceId;\r\n    }\r\n}\r\n\r\n// File: IERC721.sol\r\n\r\n// https://eips.ethereum.org/EIPS/eip-721, http://erc721.org/\r\n\r\n\r\n/// @title ERC-721 Non-Fungible Token Standard\r\n/// @dev See https://eips.ethereum.org/EIPS/eip-721\r\n///  Note: the ERC-165 identifier for this interface is 0x80ac58cd.\r\ninterface IERC721 is IERC165 {\r\n    /// @dev This emits when ownership of any NFT changes by any mechanism.\r\n    ///  This event emits when NFTs are created (`from` == 0) and destroyed\r\n    ///  (`to` == 0). Exception: during contract creation, any number of NFTs\r\n    ///  may be created and assigned without emitting Transfer. At the time of\r\n    ///  any transfer, the approved address for that NFT (if any) is reset to none.\r\n    event Transfer(address indexed _from, address indexed _to, uint256 indexed _tokenId);\r\n\r\n    /// @dev This emits when the approved address for an NFT is changed or\r\n    ///  reaffirmed. The zero address indicates there is no approved address.\r\n    ///  When a Transfer event emits, this also indicates that the approved\r\n    ///  address for that NFT (if any) is reset to none.\r\n    event Approval(address indexed _owner, address indexed _approved, uint256 indexed _tokenId);\r\n\r\n    /// @dev This emits when an operator is enabled or disabled for an owner.\r\n    ///  The operator can manage all NFTs of the owner.\r\n    event ApprovalForAll(address indexed _owner, address indexed _operator, bool _approved);\r\n\r\n    /// @notice Count all NFTs assigned to an owner\r\n    /// @dev NFTs assigned to the zero address are considered invalid, and this\r\n    ///  function throws for queries about the zero address.\r\n    /// @param _owner An address for whom to query the balance\r\n    /// @return The number of NFTs owned by `_owner`, possibly zero\r\n    function balanceOf(address _owner) external view returns (uint256);\r\n\r\n    /// @notice Find the owner of an NFT\r\n    /// @dev NFTs assigned to zero address are considered invalid, and queries\r\n    ///  about them do throw.\r\n    /// @param _tokenId The identifier for an NFT\r\n    /// @return The address of the owner of the NFT\r\n    function ownerOf(uint256 _tokenId) external view returns (address);\r\n\r\n    /// @notice Transfers the ownership of an NFT from one address to another address\r\n    /// @dev Throws unless `msg.sender` is the current owner, an authorized\r\n    ///  operator, or the approved address for this NFT. Throws if `_from` is\r\n    ///  not the current owner. Throws if `_to` is the zero address. Throws if\r\n    ///  `_tokenId` is not a valid NFT. When transfer is complete, this function\r\n    ///  checks if `_to` is a smart contract (code size > 0). If so, it calls\r\n    ///  `onERC721Received` on `_to` and throws if the return value is not\r\n    ///  `bytes4(keccak256(\"onERC721Received(address,address,uint256,bytes)\"))`.\r\n    /// @param _from The current owner of the NFT\r\n    /// @param _to The new owner\r\n    /// @param _tokenId The NFT to transfer\r\n    /// @param data Additional data with no specified format, sent in call to `_to`\r\n    function safeTransferFrom(address _from, address _to, uint256 _tokenId, bytes memory data) external;\r\n\r\n    /// @notice Transfers the ownership of an NFT from one address to another address\r\n    /// @dev This works identically to the other function with an extra data parameter,\r\n    ///  except this function just sets data to \"\".\r\n    /// @param _from The current owner of the NFT\r\n    /// @param _to The new owner\r\n    /// @param _tokenId The NFT to transfer\r\n    function safeTransferFrom(address _from, address _to, uint256 _tokenId) external;\r\n\r\n    /// @notice Transfer ownership of an NFT -- THE CALLER IS RESPONSIBLE\r\n    ///  TO CONFIRM THAT `_to` IS CAPABLE OF RECEIVING NFTS OR ELSE\r\n    ///  THEY MAY BE PERMANENTLY LOST\r\n    /// @dev Throws unless `msg.sender` is the current owner, an authorized\r\n    ///  operator, or the approved address for this NFT. Throws if `_from` is\r\n    ///  not the current owner. Throws if `_to` is the zero address. Throws if\r\n    ///  `_tokenId` is not a valid NFT.\r\n    /// @param _from The current owner of the NFT\r\n    /// @param _to The new owner\r\n    /// @param _tokenId The NFT to transfer\r\n    function transferFrom(address _from, address _to, uint256 _tokenId) external;\r\n\r\n    /// @notice Change or reaffirm the approved address for an NFT\r\n    /// @dev The zero address indicates there is no approved address.\r\n    ///  Throws unless `msg.sender` is the current NFT owner, or an authorized\r\n    ///  operator of the current owner.\r\n    /// @param _approved The new approved NFT controller\r\n    /// @param _tokenId The NFT to approve\r\n    function approve(address _approved, uint256 _tokenId) external;\r\n\r\n    /// @notice Enable or disable approval for a third party (\"operator\") to manage\r\n    ///  all of `msg.sender`'s assets\r\n    /// @dev Emits the ApprovalForAll event. The contract MUST allow\r\n    ///  multiple operators per owner.\r\n    /// @param _operator Address to add to the set of authorized operators\r\n    /// @param _approved True if the operator is approved, false to revoke approval\r\n    function setApprovalForAll(address _operator, bool _approved) external;\r\n\r\n    /// @notice Get the approved address for a single NFT\r\n    /// @dev Throws if `_tokenId` is not a valid NFT.\r\n    /// @param _tokenId The NFT to find the approved address for\r\n    /// @return The approved address for this NFT, or the zero address if there is none\r\n    function getApproved(uint256 _tokenId) external view returns (address);\r\n\r\n    /// @notice Query if an address is an authorized operator for another address\r\n    /// @param _owner The address that owns the NFTs\r\n    /// @param _operator The address that acts on behalf of the owner\r\n    /// @return True if `_operator` is an approved operator for `_owner`, false otherwise\r\n    function isApprovedForAll(address _owner, address _operator) external view returns (bool);\r\n}\r\n\r\n// File: IERC721Metadata.sol\r\n\r\n\r\n/**\r\n * @title ERC-721 Non-Fungible Token Standard, optional metadata extension\r\n * @dev See https://eips.ethereum.org/EIPS/eip-721\r\n */\r\ninterface IERC721Metadata is IERC721 {\r\n    /**\r\n     * @dev Returns the token collection name.\r\n     */\r\n    function name() external view returns (string memory);\r\n\r\n    /**\r\n     * @dev Returns the token collection symbol.\r\n     */\r\n    function symbol() external view returns (string memory);\r\n\r\n    /**\r\n     * @dev Returns the Uniform Resource Identifier (URI) for `tokenId` token.\r\n     */\r\n    function tokenURI(uint256 tokenId) external view returns (string memory);\r\n}\r\n\r\n// File: ERC721.sol\r\n\r\n/**\r\n * @dev Implementation of https://eips.ethereum.org/EIPS/eip-721[ERC721] Non-Fungible Token Standard, including\r\n * the Metadata extension\r\n * Made for efficiancy!\r\n */\r\ncontract ERC721 is ERC165, IERC721, IERC721Metadata, Ownable {\r\n    using Address for address;\r\n    using Strings for uint256;\r\n\r\n    uint16 public totalSupply;\r\n\r\n    address public proxyRegistryAddress;\r\n\r\n    string public baseURI;\r\n\r\n    // Mapping from token ID to owner address\r\n    mapping(uint256 => address) internal _owners;\r\n\r\n    // Mapping owner address to token count\r\n    mapping(address => uint256) internal _balances;\r\n\r\n    // Mapping from token ID to approved address\r\n    mapping(uint256 => address) private _tokenApprovals;\r\n\r\n    // Mapping from owner to operator approvals\r\n    mapping(address => mapping(address => bool)) private _operatorApprovals;\r\n\r\n\r\n    constructor(address _openseaProxyRegistry, string memory _baseURI) {\r\n        proxyRegistryAddress = _openseaProxyRegistry;\r\n        baseURI = _baseURI;\r\n    }\r\n\r\n    /**\r\n     * @dev See {IERC165-supportsInterface}.\r\n     */\r\n    function supportsInterface(bytes4 interfaceId) public view virtual override(ERC165, IERC165) returns (bool) {\r\n        return\r\n            interfaceId == type(IERC721).interfaceId ||\r\n            interfaceId == type(IERC721Metadata).interfaceId ||\r\n            super.supportsInterface(interfaceId);\r\n    }\r\n\r\n    /**\r\n     * @dev See {IERC721-balanceOf}.\r\n     */\r\n    function balanceOf(address owner) external view override returns (uint256) {\r\n        require(owner != address(0), \"ERC721: balance query for the zero address\");\r\n        return _balances[owner];\r\n    }\r\n\r\n    /**\r\n     * @dev See {IERC721-ownerOf}.\r\n     */\r\n    function ownerOf(uint256 tokenId) public view override returns (address) {\r\n        address owner = _owners[tokenId];\r\n        require(owner != address(0), \"ERC721: owner query for nonexistent token\");\r\n        return owner;\r\n    }\r\n\r\n    /**\r\n     * @dev See {IERC721Metadata-name}.\r\n     */\r\n    function name() external pure override returns (string memory) {\r\n        return \"Lofi Originals\";\r\n    }\r\n\r\n    /**\r\n     * @dev See {IERC721Metadata-symbol}.\r\n     */\r\n    function symbol() external pure override returns (string memory) {\r\n        return \"LO\";\r\n    }\r\n\r\n    /**\r\n     * @dev See {IERC721Metadata-tokenURI}.\r\n     */\r\n    function tokenURI(uint256 tokenId) external view override returns (string memory) {\r\n        require(_exists(tokenId), \"ERC721Metadata: URI query for nonexistent token\");\r\n\r\n        return string(abi.encodePacked(baseURI, tokenId.toString(), \".json\"));\r\n    }\r\n\r\n    function setBaseURI(string memory uri) external onlyOwner {\r\n        baseURI = uri;\r\n    }\r\n\r\n    /**\r\n     * @dev See {IERC721-approve}.\r\n     */\r\n    function approve(address to, uint256 tokenId) external override {\r\n        address owner = _owners[tokenId];\r\n        require(to != owner, \"ERC721: approval to current owner\");\r\n\r\n        require(\r\n            msg.sender == owner || isApprovedForAll(owner, msg.sender),\r\n            \"ERC721: approve caller is not owner nor approved for all\"\r\n        );\r\n\r\n        _approve(to, tokenId);\r\n    }\r\n\r\n    /**\r\n     * @dev See {IERC721-getApproved}.\r\n     */\r\n    function getApproved(uint256 tokenId) public view override returns (address) {\r\n        require(_exists(tokenId), \"ERC721: approved query for nonexistent token\");\r\n\r\n        return _tokenApprovals[tokenId];\r\n    }\r\n\r\n    /**\r\n     * @dev See {IERC721-setApprovalForAll}.\r\n     */\r\n    function setApprovalForAll(address operator, bool approved) external override {\r\n        _setApprovalForAll(msg.sender, operator, approved);\r\n    }\r\n\r\n    /**\r\n     * @dev See {IERC721-isApprovedForAll}.\r\n     */\r\n    function isApprovedForAll(address owner, address operator) public view override returns (bool) {\r\n        // Whitelist OpenSea proxy contract for easy trading.\r\n        ProxyRegistry proxyRegistry = ProxyRegistry(proxyRegistryAddress);\r\n        if (address(proxyRegistry.proxies(owner)) == operator) {\r\n            return true;\r\n        }\r\n\r\n        return _operatorApprovals[owner][operator];\r\n    }\r\n\r\n    function setOpenseaProxyRegistry(address addr) external onlyOwner {\r\n        proxyRegistryAddress = addr;\r\n    }\r\n\r\n    /**\r\n     * @dev See {IERC721-transferFrom}.\r\n     */\r\n    function transferFrom(\r\n        address from,\r\n        address to,\r\n        uint256 tokenId\r\n    ) external override {\r\n        //solhint-disable-next-line max-line-length\r\n        require(_isApprovedOrOwner(msg.sender, tokenId), \"ERC721: transfer caller is not owner nor approved\");\r\n\r\n        _transfer(from, to, tokenId);\r\n    }\r\n\r\n    /**\r\n     * @dev See {IERC721-safeTransferFrom}.\r\n     */\r\n    function safeTransferFrom(\r\n        address from,\r\n        address to,\r\n        uint256 tokenId\r\n    ) external override {\r\n        safeTransferFrom(from, to, tokenId, \"\");\r\n    }\r\n\r\n    /**\r\n     * @dev See {IERC721-safeTransferFrom}.\r\n     */\r\n    function safeTransferFrom(\r\n        address from,\r\n        address to,\r\n        uint256 tokenId,\r\n        bytes memory _data\r\n    ) public override {\r\n        require(_isApprovedOrOwner(msg.sender, tokenId), \"ERC721: transfer caller is not owner nor approved\");\r\n        _safeTransfer(from, to, tokenId, _data);\r\n    }\r\n\r\n    /**\r\n     * @dev Safely transfers `tokenId` token from `from` to `to`, checking first that contract recipients\r\n     * are aware of the ERC721 protocol to prevent tokens from being forever locked.\r\n     *\r\n     * `_data` is additional data, it has no specified format and it is sent in call to `to`.\r\n     *\r\n     * This internal function is equivalent to {safeTransferFrom}, and can be used to e.g.\r\n     * implement alternative mechanisms to perform token transfer, such as signature-based.\r\n     *\r\n     * Requirements:\r\n     *\r\n     * - `from` cannot be the zero address.\r\n     * - `to` cannot be the zero address.\r\n     * - `tokenId` token must exist and be owned by `from`.\r\n     * - If `to` refers to a smart contract, it must implement {IERC721Receiver-onERC721Received}, which is called upon a safe transfer.\r\n     *\r\n     * Emits a {Transfer} event.\r\n     */\r\n    function _safeTransfer(\r\n        address from,\r\n        address to,\r\n        uint256 tokenId,\r\n        bytes memory _data\r\n    ) internal virtual {\r\n        _transfer(from, to, tokenId);\r\n        require(_checkOnERC721Received(from, to, tokenId, _data), \"ERC721: transfer to non ERC721Receiver implementer\");\r\n    }\r\n\r\n    /**\r\n     * @dev Returns whether `tokenId` exists.\r\n     *\r\n     * Tokens can be managed by their owner or approved accounts via {approve} or {setApprovalForAll}.\r\n     *\r\n     * Tokens start existing when they are minted\r\n     */\r\n    function _exists(uint256 tokenId) internal view virtual returns (bool) {\r\n        return _owners[tokenId] != address(0);\r\n    }\r\n\r\n    /**\r\n     * @dev Returns whether `spender` is allowed to manage `tokenId`.\r\n     *\r\n     * Requirements:\r\n     *\r\n     * - `tokenId` must exist.\r\n     */\r\n    function _isApprovedOrOwner(address spender, uint256 tokenId) internal view virtual returns (bool) {\r\n        require(_exists(tokenId), \"ERC721: operator query for nonexistent token\");\r\n        address owner = _owners[tokenId];\r\n        return (spender == owner || getApproved(tokenId) == spender || isApprovedForAll(owner, spender));\r\n    }\r\n\r\n    /**\r\n     * @dev Mints `tokenId` and transfers it to `to`.\r\n     *\r\n     * WARNING: Usage of this method is discouraged, use {_safeMint} whenever possible\r\n     *\r\n     * Requirements:\r\n     *\r\n     * - `tokenId` must not exist.\r\n     * - `to` cannot be the zero address.\r\n     *\r\n     * Emits a {Transfer} event.\r\n     */\r\n    function _mint(uint256 amount, address to, uint tokenId) internal {\r\n\r\n        _balances[to] += amount;\r\n\r\n        for (uint i; i < amount; i++) {\r\n            tokenId++;\r\n\r\n            _owners[tokenId] = to;\r\n            emit Transfer(address(0), to, tokenId);\r\n        }\r\n\r\n        totalSupply += uint16(amount);\r\n\r\n        require(\r\n            _checkOnERC721Received(address(0), to, tokenId, \"\"),\r\n            \"ERC721: transfer to non ERC721Receiver implementer\"\r\n        ); // checking it once will make sure that the address can recieve NFTs\r\n    }\r\n\r\n    function _mint(address to, uint tokenId) internal {\r\n\r\n        _balances[to]++;\r\n        _owners[tokenId] = to;\r\n        emit Transfer(address(0), to, tokenId);\r\n\r\n        totalSupply++;\r\n        \r\n        require(\r\n            _checkOnERC721Received(address(0), to, tokenId, \"\"),\r\n            \"ERC721: transfer to non ERC721Receiver implementer\"\r\n        );\r\n    }\r\n\r\n    /**\r\n     * @dev Transfers `tokenId` from `from` to `to`.\r\n     *  As opposed to {transferFrom}, this imposes no restrictions on msg.sender.\r\n     *\r\n     * Requirements:\r\n     *\r\n     * - `to` cannot be the zero address.\r\n     * - `tokenId` token must be owned by `from`.\r\n     *\r\n     * Emits a {Transfer} event.\r\n     */\r\n    function _transfer(\r\n        address from,\r\n        address to,\r\n        uint256 tokenId\r\n    ) internal virtual {\r\n        require(_owners[tokenId] == from, \"ERC721: transfer from incorrect owner\");\r\n        require(to != address(0), \"ERC721: transfer to the zero address\");\r\n\r\n        // Clear approvals from the previous owner\r\n        _approve(address(0), tokenId);\r\n\r\n        _balances[from]--;\r\n        _balances[to]++;\r\n\r\n        _owners[tokenId] = to;\r\n\r\n        emit Transfer(from, to, tokenId);\r\n    }\r\n\r\n    /**\r\n     * @dev Approve `to` to operate on `tokenId`\r\n     *\r\n     * Emits a {Approval} event.\r\n     */\r\n    function _approve(address to, uint256 tokenId) internal virtual {\r\n        _tokenApprovals[tokenId] = to;\r\n        emit Approval(ERC721.ownerOf(tokenId), to, tokenId);\r\n    }\r\n\r\n    /**\r\n     * @dev Approve `operator` to operate on all of `owner` tokens\r\n     *\r\n     * Emits a {ApprovalForAll} event.\r\n     */\r\n    function _setApprovalForAll(\r\n        address owner,\r\n        address operator,\r\n        bool approved\r\n    ) internal virtual {\r\n        require(owner != operator, \"ERC721: approve to caller\");\r\n        _operatorApprovals[owner][operator] = approved;\r\n        emit ApprovalForAll(owner, operator, approved);\r\n    }\r\n\r\n    /**\r\n     * @dev Internal function to invoke {IERC721Receiver-onERC721Received} on a target address.\r\n     * The call is not executed if the target address is not a contract.\r\n     *\r\n     * @param from address representing the previous owner of the given token ID\r\n     * @param to target address that will receive the tokens\r\n     * @param tokenId uint256 ID of the token to be transferred\r\n     * @param _data bytes optional data to send along with the call\r\n     * @return bool whether the call correctly returned the expected magic value\r\n     */\r\n    function _checkOnERC721Received(\r\n        address from,\r\n        address to,\r\n        uint256 tokenId,\r\n        bytes memory _data\r\n    ) internal returns (bool) {\r\n        if (to.isContract()) {\r\n            try IERC721Receiver(to).onERC721Received(msg.sender, from, tokenId, _data) returns (bytes4 retval) {\r\n                return retval == IERC721Receiver.onERC721Received.selector;\r\n            } catch (bytes memory reason) {\r\n                if (reason.length == 0) {\r\n                    revert(\"ERC721: transfer to non ERC721Receiver implementer\");\r\n                } else {\r\n                    assembly {\r\n                        revert(add(32, reason), mload(reason))\r\n                    }\r\n                }\r\n            }\r\n        } else {\r\n            return true;\r\n        }\r\n    }\r\n\r\n}\r\n\r\ncontract OwnableDelegateProxy {}\r\n\r\ncontract ProxyRegistry {\r\n    mapping(address => OwnableDelegateProxy) public proxies;\r\n}\r\n\r\n\r\n// File: LO.sol\r\n\r\n\r\ncontract LO is Ownable, IERC2981, ERC721 {\r\n\r\n    bool private _onlyWhiteList;\r\n    bool private _mintingEnabled;\r\n\r\n    uint private EIP2981RoyaltyPercent;\r\n\r\n    mapping (address => uint8) public amountPreMinted;\r\n    mapping (address => uint8) public amountMinted;\r\n\r\n    constructor(\r\n        uint _royalty,\r\n        address _openseaProxyRegistry,\r\n        string memory _tempBaseURI\r\n    ) ERC721(_openseaProxyRegistry, _tempBaseURI) {\r\n        EIP2981RoyaltyPercent = _royalty;\r\n    }\r\n\r\n    function mintFromReserve(uint amount, address to) external onlyOwner {\r\n        uint tokenId = totalSupply;\r\n        require(amount + tokenId < 5556);\r\n        _mint(amount, to, tokenId);\r\n    }\r\n\r\n    function batchMintFromReserve(uint[] memory amount, address[] memory to) external onlyOwner {\r\n        uint length = amount.length;\r\n        require(length == to.length, \"array length missmatch\");\r\n\r\n        uint tokenId = totalSupply;\r\n        uint total;\r\n\r\n        uint cAmount;\r\n        address cTo;\r\n\r\n        for (uint i; i < length; i++) {\r\n\r\n            assembly {\r\n                cAmount := mload(add(add(amount, 0x20), mul(i, 0x20)))\r\n                cTo := mload(add(add(to, 0x20), mul(i, 0x20)))\r\n            }\r\n\r\n            require(!Address.isContract(cTo), \"Cannot mint to contracts!\");\r\n\r\n            _balances[cTo] += cAmount;\r\n\r\n            for (uint f; f < cAmount; f++) {\r\n                tokenId++;\r\n\r\n                _owners[tokenId] = cTo;\r\n                emit Transfer(address(0), cTo, tokenId);\r\n            }\r\n\r\n            total += cAmount;\r\n        }\r\n\r\n        require(tokenId < 5556, \"Exceeds reserve!\");\r\n\r\n        totalSupply += uint16(total);\r\n    }\r\n\r\n    function mint(uint256 amount) external payable {\r\n        require(_mintingEnabled, \"Minting is not enabled!\");\r\n        uint tokenId = totalSupply;\r\n        require(amount + tokenId < 5556, \"Request exceeds max supply!\");\r\n        require(amount + amountMinted[msg.sender] < 3 && amount != 0, \"Request exceeds max per wallet!\");\r\n        require(msg.value == amount * 9e16, \"ETH Amount is not correct!\");\r\n\r\n        amountMinted[msg.sender] += uint8(amount);\r\n        _mint(amount, msg.sender, tokenId);\r\n    }\r\n\r\n    function famMint(bytes calldata sig) external payable {\r\n        require(_onlyWhiteList, \"Minting is not enabled!\");\r\n        require(_checkFamSig(msg.sender, sig), \"User not whitelisted!\");\r\n        uint tokenId = totalSupply + 1;\r\n        require(tokenId < 5556, \"Request exceeds max supply!\");\r\n        require(amountPreMinted[msg.sender] == 0, \"Request exceeds max per wallet!\");\r\n        require(msg.value == 9e16, \"ETH Amount is not correct!\");\r\n\r\n        amountPreMinted[msg.sender]++;\r\n        _mint(msg.sender, tokenId);\r\n    }\r\n\r\n    function ogMint(bytes calldata sig, uint256 amount) external payable {\r\n        require(_onlyWhiteList, \"Minting is not enabled!\");\r\n        require(_checkOgSig(msg.sender, sig), \"User not whitelisted!\");\r\n        uint tokenId = totalSupply;\r\n        require(amount + tokenId < 5556, \"Request exceeds max supply!\");\r\n        require(amount + amountPreMinted[msg.sender] < 3 && amount != 0, \"Request exceeds max per wallet!\");\r\n        require(msg.value == amount * 9e16, \"ETH Amount is not correct!\");\r\n\r\n        amountPreMinted[msg.sender] += uint8(amount);\r\n        _mint(amount, msg.sender, tokenId);\r\n    }\r\n\r\n    function _checkOgSig(address _wallet, bytes memory _signature) private view returns(bool) {\r\n        return ECDSA.recover(\r\n            ECDSA.toEthSignedMessageHash(keccak256(abi.encodePacked(_wallet, \"OG\"))),\r\n            _signature\r\n        ) == owner();\r\n    }\r\n\r\n    function _checkFamSig(address _wallet, bytes memory _signature) private view returns(bool) {\r\n        return ECDSA.recover(\r\n            ECDSA.toEthSignedMessageHash(keccak256(abi.encodePacked(_wallet, \"FAM\"))),\r\n            _signature\r\n        ) == owner();\r\n    }\r\n\r\n    function getOgMsg(address _wallet) external pure returns(bytes32) {\r\n        return keccak256(abi.encodePacked(_wallet, \"OG\"));\r\n    }\r\n\r\n    function getFamMsg(address _wallet) external pure returns(bytes32) {\r\n        return keccak256(abi.encodePacked(_wallet, \"FAM\"));\r\n    }\r\n\r\n    function getSalesStatus() external view returns(bool onlyWhitelist, bool mintingEnabled) {\r\n        onlyWhitelist = _onlyWhiteList;\r\n        mintingEnabled = _mintingEnabled;\r\n    }\r\n\r\n    /**\r\n     * @notice returns royalty info for EIP2981 supporting marketplaces\r\n     * @dev Called with the sale price to determine how much royalty is owed and to whom.\r\n     * @param tokenId - the NFT asset queried for royalty information\r\n     * @param salePrice - the sale price of the NFT asset specified by `tokenId`\r\n     * @return receiver - address of who should be sent the royalty payment\r\n     * @return royaltyAmount - the royalty payment amount for `salePrice`\r\n     */\r\n    function royaltyInfo(uint tokenId, uint salePrice) external view override returns(address receiver, uint256 royaltyAmount) {\r\n        require(_exists(tokenId), \"Royality querry for non-existant token!\");\r\n        return(owner(), salePrice * EIP2981RoyaltyPercent / 10000);\r\n    }\r\n\r\n    /**\r\n     * @notice sets the royalty percentage for EIP2981 supporting marketplaces\r\n     * @dev percentage is in bassis points (parts per 10,000).\r\n            Example: 5% = 500, 0.5% = 50\r\n     * @param amount - percent amount\r\n     */\r\n    function setRoyaltyPercent(uint256 amount) external onlyOwner {\r\n        EIP2981RoyaltyPercent = amount;\r\n    }\r\n\r\n    /**\r\n     * @dev See {IERC165-supportsInterface}.\r\n     */\r\n    function supportsInterface(bytes4 interfaceId) public view virtual override(IERC165, ERC721) returns (bool) {\r\n        return\r\n            interfaceId == type(IERC2981).interfaceId ||\r\n            super.supportsInterface(interfaceId);\r\n    }\r\n\r\n    function withdraw() onlyOwner external {\r\n        uint bal = address(this).balance;\r\n        bool success;\r\n        (success, ) = payable(msg.sender).call{value: (bal * 92) / 100, gas: 3000}(\"\");\r\n        require(success, \"Transfer to contract owner failed!\");\r\n        (success, ) = payable(0xFab795b3e736C4323103a3ADAa901cc5a43646fE).call{value: ((bal * 8) / 100), gas: 3000}(\"\");\r\n        require(success, \"Transfer to core devs failed!\");\r\n        \r\n    }\r\n\r\n    /**\r\n     * @notice toggles pre sale\r\n     * @dev enables the pre sale functions. NEVER USE THIS AFTER ENABLING THE PUBLIC SALE FUNCTIONS UNLESS ITS NECESSARY\r\n     */\r\n    function togglePresale() external onlyOwner {\r\n        _onlyWhiteList = !_onlyWhiteList;\r\n    }\r\n\r\n    /**\r\n     * @notice toggles the public sale\r\n     * @dev enables/disables public sale functions and disables pre sale functions\r\n     */\r\n    function togglePublicSale() external onlyOwner {\r\n        _onlyWhiteList = false;\r\n        _mintingEnabled = !_mintingEnabled;\r\n    }\r\n\r\n    function tokensOfOwner(address owner) external view returns(uint[] memory) {\r\n        uint[] memory tokens = new uint[](_balances[owner]);\r\n        uint y = totalSupply + 1;\r\n        uint x;\r\n\r\n        for (uint i = 1; i < y; i++) {\r\n            if (ownerOf(i) == owner) {\r\n                tokens[x] = i;\r\n                x++;\r\n            }\r\n        }\r\n\r\n        return tokens;\r\n    }\r\n}",
  "sourcePath": "D:\\Code\\L.O-contracts\\contracts\\LO.sol",
  "compiler": {
    "name": "solc",
    "version": "0.8.7+commit.e28d00a7.Emscripten.clang"
  },
  "schemaVersion": "3.4.5",
  "updatedAt": "2022-05-02T18:59:40.741Z",
  "devdoc": {
    "kind": "dev",
    "methods": {
      "approve(address,uint256)": {
        "details": "See {IERC721-approve}."
      },
      "balanceOf(address)": {
        "details": "See {IERC721-balanceOf}."
      },
      "getApproved(uint256)": {
        "details": "See {IERC721-getApproved}."
      },
      "isApprovedForAll(address,address)": {
        "details": "See {IERC721-isApprovedForAll}."
      },
      "name()": {
        "details": "See {IERC721Metadata-name}."
      },
      "owner()": {
        "details": "Returns the address of the current owner."
      },
      "ownerOf(uint256)": {
        "details": "See {IERC721-ownerOf}."
      },
      "renounceOwnership()": {
        "details": "Leaves the contract without owner. It will not be possible to call `onlyOwner` functions anymore. Can only be called by the current owner. NOTE: Renouncing ownership will leave the contract without an owner, thereby removing any functionality that is only available to the owner."
      },
      "royaltyInfo(uint256,uint256)": {
        "details": "Called with the sale price to determine how much royalty is owed and to whom.",
        "params": {
          "salePrice": "- the sale price of the NFT asset specified by `tokenId`",
          "tokenId": "- the NFT asset queried for royalty information"
        },
        "returns": {
          "receiver": "- address of who should be sent the royalty payment",
          "royaltyAmount": "- the royalty payment amount for `salePrice`"
        }
      },
      "safeTransferFrom(address,address,uint256)": {
        "details": "See {IERC721-safeTransferFrom}."
      },
      "safeTransferFrom(address,address,uint256,bytes)": {
        "details": "See {IERC721-safeTransferFrom}."
      },
      "setApprovalForAll(address,bool)": {
        "details": "See {IERC721-setApprovalForAll}."
      },
      "setRoyaltyPercent(uint256)": {
        "details": "percentage is in bassis points (parts per 10,000). Example: 5% = 500, 0.5% = 50",
        "params": {
          "amount": "- percent amount"
        }
      },
      "supportsInterface(bytes4)": {
        "details": "See {IERC165-supportsInterface}."
      },
      "symbol()": {
        "details": "See {IERC721Metadata-symbol}."
      },
      "togglePresale()": {
        "details": "enables the pre sale functions. NEVER USE THIS AFTER ENABLING THE PUBLIC SALE FUNCTIONS UNLESS ITS NECESSARY"
      },
      "togglePublicSale()": {
        "details": "enables/disables public sale functions and disables pre sale functions"
      },
      "tokenURI(uint256)": {
        "details": "See {IERC721Metadata-tokenURI}."
      },
      "transferFrom(address,address,uint256)": {
        "details": "See {IERC721-transferFrom}."
      },
      "transferOwnership(address)": {
        "details": "Transfers ownership of the contract to a new account (`newOwner`). Can only be called by the current owner."
      }
    },
    "version": 1
  },
  "userdoc": {
    "kind": "user",
    "methods": {
      "royaltyInfo(uint256,uint256)": {
        "notice": "returns royalty info for EIP2981 supporting marketplaces"
      },
      "setRoyaltyPercent(uint256)": {
        "notice": "sets the royalty percentage for EIP2981 supporting marketplaces"
      },
      "togglePresale()": {
        "notice": "toggles pre sale"
      },
      "togglePublicSale()": {
        "notice": "toggles the public sale"
      }
    },
    "version": 1
  }
}